:020000040800F2
:10000000505300205D020008D52200080B1900089B
:10001000D1220008D7130008CD26000800000000F8
:100020000000000000000000000000009D0100082A
:10003000DB13000800000000F90100082D2400086F
:1000400077020008770200087702000877020008AC
:10005000770200087702000877020008770200089C
:10006000770200087702000877020008770200088C
:10007000770200087702000877020008770200087C
:10008000770200087702000877020008770200086C
:10009000770200087702000877020008770200085C
:1000A000770200089525000877020008770200080B
:1000B000770200087702000877020008770200083C
:1000C000770200087702000877020008770200082C
:1000D00077020008770200089D260008AD26000878
:1000E000770200087702000877020008770200080C
:1000F00077020008770200087702000877020008FC
:1001000077020008770200087702000877020008EB
:100110008D260008770200087702000877020008A1
:1001200077020008770200087702000877020008CB
:1001300077020008000000000000000077020008BD
:1001400077020008770200087702000877020008AB
:10015000770200087702000877020008BD26000831
:10016000770200087702000877020008770200088B
:10017000770200087702000800000000000000007D
:100180007702000877020008DFF80CD000F076FD57
:1001900000480047513C0008505300202C4B196880
:1001A0000868B0E8F04F80F30988BFF36F8F4FF015
:1001B000000080F3118870470000000008480068C4
:1001C000006880F308884FF0000080F3148862B65E
:1001D00061B6BFF34F8FBFF36F8F00DF00BF00BF6B
:1001E00008ED00E0DFF80C00016841F470010160E7
:1001F000704700BF88ED00E0EFF30980BFF36F8F19
:10020000134B1A681EF0100F08BF20ED108A20E96A
:10021000F04F106009B44FF0500080F31188BFF325
:100220004F8FBFF36F8F06F081F94FF0000080F31E
:10023000118809BC19680868B0E8F04F1EF0100F6B
:1002400008BFB0EC108A80F30988BFF36F8F704746
:100250008C000020EFF305807047000006488047BF
:1002600006480047FEE7FEE7FEE7FEE7FEE7FEE79B
:10027000FEE7FEE7FEE7FEE78125000889010008AA
:100280002DE9F05F0546002092469B4688460646CB
:10029000814640241BE0284641464746224600F05E
:1002A000CFFA53465A46C01A914110D31146184608
:1002B000224600F0B6FA2D1A67EB01084F46224697
:1002C0000120002100F0ADFA17EB00094E41201E7D
:1002D000A4F10104DFDC484631462A464346BDE826
:1002E000F09F40EA01039B0703D009E008C9121FF1
:1002F00008C0042AFAD203E011F8013B00F8013BE0
:10030000521EF9D27047D2B201E000F8012B491E0B
:10031000FBD270470022F6E710B513460A460446A2
:100320001946FFF7F0FF204610BD30B505462A46B6
:100330000B4612F8010B13F8014B08B1A042F8D09C
:100340001CB1002802D06D1CF1E7284630BD10B565
:10035000044604E00B7800F8013B03B1491C521E2F
:10036000F8D2204610BD10B5002200E0521C835C7C
:100370008C5CA34201D1002BF8D1D8B2E1B2401A73
:1003800010BD000070B50F4D00B92868002412E0C0
:100390000A4602E09E4203D0521C1378002BF9D18A
:1003A000DAB2224305D02BB124B1002100F8011BA1
:1003B00004E00446401C0678002EE9D1286020465F
:1003C00070BD00000C0100200FB400B58DB010A965
:1003D00009900B9000914FF0FF300A9000200C9094
:1003E00005480690054807906A4609A80F9900F04D
:1003F0005DFA0DB05DF814FBC9080008E7080008B5
:100400002DE9FF5F1D464FF0FF3BD5E901469146C0
:100410005F464FF00008A9697F1C01988847296A48
:10042000824688470028F6D1BAF1FF3F0CD024F469
:10043000C064002E19DD600614D5BAF12B0F09D067
:10044000BAF12D0F0ED103E0584604B0BDE8F09F7D
:1004500044F48064A9697F1C01988847761E82460F
:10046000002E02DDBAF1300F03D0B9F1000F26D013
:1004700032E0A969761E44F400747F1C0198884715
:100480008246002E05DDBAF1780F06D0BAF1580F7A
:1004900003D0B9F1000F10D01EE0B9F1000F02D067
:1004A000B9F1100F18D1A969761E24F400747F1CCD
:1004B000019888478246102002E0082000E00A20C8
:1004C000814609E008FB0908A969761E44F4007416
:1004D0007F1C019888478246002E05DD494650461C
:1004E00000F0D0F90028EDDAE96901988847A00505
:1004F00002D46FF00100A8E7E00725D1600613D50C
:10050000600502D5C8F1000000E0404629680A1DD8
:100510002A600968220501D5087015E0220701D577
:10052000088011E008600FE02868011D296000685C
:10053000210502D580F8008006E0210702D5A0F849
:10054000008001E0C0F8008038467EE770B50646BE
:1005500002F02CF9046805460A220021304600F01A
:1005600021FA2C6070BD2DE9FE4F804681EA030020
:10057000C00F0C46009021F0004123F00045B8EB7D
:100580000200A94105D24046214690461C460B4632
:10059000024623F00040104347D0270DC7F30A005E
:1005A000C3F30A510290401A019040286BDAC3F35A
:1005B000130040F4801B0098924620B10023D2EB38
:1005C000030A63EB0B0B01985946C0F140025046F9
:1005D00000F027F906460D4650465946019A00F0AC
:1005E0003FF910EB08006141002487EA115284EAC8
:1005F000E7731A4340D0009A62B3019A012A4FEA86
:10060000075215DC001B61EB02014FF0004202EAC9
:100610000752CDE90042001C41F5801132462B46BD
:1006200000F03EFA03B0BDE8F08F40462146F9E7FE
:10063000001B61EB0201001C41F5801300185B41B7
:100640002018A2F5001747EB030140EAD570B61950
:100650006D4111E06D084FEA360645EAC0754FEA74
:100660000752001B61EB0201001C41F58011490893
:100670004FEA30000019514132462B4603B0BDE825
:10068000F04F00F0FEB90098012240000023D0EBAB
:10069000020263EBE073009821464FEAE074B8EB86
:1006A000000061EB0401E9E783F000435BE781F0C0
:1006B000004158E72DE9FE4F81EA030404F00044AD
:1006C00021F0004100944FF0000B23F0004350EA6A
:1006D00001045ED052EA03045BD0C3F30A54C1F3B1
:1006E0000A552C44A4F2F3340194A0FB0254C1F344
:1006F000130141F48011C3F3130343F4801301FB8E
:10070000024400FB034E840A970A44EA815447EAF4
:100710008357A4FB076802958D0A05FB07854FEAFE
:10072000932C04FB0C542705029D4FEA065847EA18
:100730001637B5EB08056EEB070C870E920E47EAED
:10074000811742EA8312A7FB0201B6EB0B0164EBAF
:1007500000042B0D43EA0C335E1844EB1C50DA46C0
:100760005146E7FB0201C5F313044FEA0B3343EA9A
:1007700014534FEA0432019C43EA0603A4F10C042B
:100780000294009CCDE900B400F08AF903B0BDE802
:10079000F08F00200146F9E700F0004230F0004001
:1007A0000AD0C10D01F56071C0F3160042EA015193
:1007B000C20840071143704700200146704701F00E
:1007C000004330B421F0004150EA010206D00A0D86
:1007D000A2F56072C1F31301002A02DC30BC0020D4
:1007E0007047440F44EAC104C100E01830BC00EB7C
:1007F000C25000F00FB930B50B4601460020202250
:10080000012409E021FA02F59D4205D303FA02F51D
:10081000491B04FA02F52844151EA2F10102F1DC7D
:1008200030BD202A04DB203A00FA02F10020704794
:100830009140C2F1200320FA03F31943904070471E
:10084000202A04DB203A21FA02F00021704721FA25
:1008500002F3D040C2F1200291400843194670478C
:10086000202A06DBCB17203A41FA02F043EAE07374
:1008700006E041FA02F3D040C2F120029140084361
:10088000194670473A2800D2303820F02002412A19
:1008900001D3A2F13700884201D34FF0FF307047F7
:1008A000026811441378016018467047D16004490A
:1008B00051610449116200211161114600F0FEB935
:1008C000A1080008A90C0008426842B1016811F8AB
:1008D000013B23B1521EC0E90012184670470121A6
:1008E000C160881E704742685AB1C368016843B945
:1008F00083688B4205D0491E521CC0E900120020BB
:1009000070474FF0FF3070470FB4002300B589B037
:100910000CA900910B996FF00042CB601E4B06931F
:100920001E4B07930423CDE901321D4A089202466B
:100930006B46002000F0D8FB09B05DF814FB70B5E1
:1009400086B006464FF0FF300091CDE9010100204E
:1009500015460C4604903246694604A8FFF7D4FFBA
:1009600003460498211825B108B10A4600E0224642
:100970002A6000280DD0002B02DD0098884208D0A4
:10098000081B0094CDE901043246694604A8FFF72C
:10099000BBFF06B070BD0000C9080008E7080008EA
:1009A000A90C00082DE9F04791460F468046044601
:1009B000002614F8015B2DB100F072F90068405D6B
:1009C000C007F6D12B2D02D02D2D18D0641E4A461B
:1009D0003946204600F0A4FC27B13968A14201D174
:1009E000C7F8008071054FF002040BD54042002883
:1009F00003DD01F0DBFE0460A007BDE8F08746F4EC
:100A00008066E4E70028F8DA01F0D0FE04606FF0B9
:100A10000040F2E70029A8BF7047401C490008BF0A
:100A200020F00100704710B4B0FA80FC00FA0CF01E
:100A300050EA010404BF10BC704749B1CCF1200456
:100A400021FA04F411FA0CF118BF012121430843E3
:100A5000A3EB0C01CB1D4FEA00614FEA102042BF0F
:100A6000002010BC704700EBC35010440029A4BF05
:100A700010BC7047401C490008BF20F0010010BCAA
:100A8000704710B5141E73F1000408DA401C41F1E0
:100A9000000192185B411A4301D120F0010010BD02
:100AA0002DE9F04D92469B4611B1B1FA81F202E078
:100AB000B0FA80F220329046FFF7B3FE04460F46AC
:100AC00040EA0A0041EA0B0153465A46084313D054
:100AD000114653EA010019D0C8F140025046FFF711
:100AE000AFFE05460E46504659464246FFF799FE70
:100AF000084305D0012004E020463946BDE8F08DCA
:100B00000020054346EAE0762C4337430A98630504
:100B1000E40AA0EB08000022FD0A44EA47540A3028
:100B200002D500200146E9E7010510196941DDE918
:100B3000084500196941BDE8F04DA2E72DE9F04DE7
:100B400081EA030404F0004B21F0004514464FF005
:100B5000000A23F0004150EA050220D054EA0102C5
:100B60001DD0C5F30A570246C5F31303C1F31300A2
:100B7000C1F30A5640F4801543F48013A7EB06082E
:100B8000101BD64608F2FD3873EB050002D308F1BE
:100B9000010801E092185B41B8F1000F03DA002070
:100BA0000146BDE8F08D00204FF4801106468446D2
:100BB0000EE0171B73EB050705D3121B63EB050350
:100BC00006434CEA010C49084FEA300092185B4199
:100BD00050EA0107EDD152EA030012D082EA040084
:100BE00083EA0501084305D0101BAB4106D2012260
:100BF000002306E000224FF0004302E06FF0010204
:100C000053101AEB06004CEB085110EB0A0041EBB5
:100C10000B01BDE8F04DFFF734BFC1F30A52C1F339
:100C2000130140F2FF3341F480119A4202DA0020AE
:100C30000146704740F233439A42A2F2334202DC4B
:100C40005242FFF7FDBDFFF7ECBD000030B5041EBA
:100C500071F1000404DB4FF00044404264EB0101F9
:100C6000141E73F1000405DB1C464FF00043524292
:100C700063EB0403994208BF904230BD064C074D18
:100C800006E0E06840F0010394E80700984710345C
:100C9000AC42F6D3FFF77CFA487600086876000885
:100CA00000487047D475000810B50446FFF7F8FFF8
:100CB0000068005D00F0010010BD00002DE9F34F59
:100CC0008BB04FF0000801F10C000C464FF0010B07
:100CD00046460DF1080A019062690121019890478A
:100CE000051E2DD0252D2CD0216A8847C0B1626900
:100CF000012101989047216A88470028F7D1411EB9
:100D000062690198904700E0761CA1690B988847BA
:100D1000216A88470028F7D1E1690B988847DBE70B
:100D2000A1690B9888470746A84201D1761CD3E7F2
:100D3000E1690B9888477F1C02D1B8F1000F6FD092
:100D400046E1002762693D463946019890472A28C6
:100D500004D162690121019890470125DFF884924E
:100D60006269012101989047A0F130010A290AD255
:100D70004F45E5DC07EB870100EB4107303FDFD44F
:100D800045F01005ECE7E90601D46FF000476C2848
:100D90000AD04C2814D0682815D06A280DD07428A1
:100DA0001CD07A281AD01DE0626901210198904771
:100DB0006C2802D045F0040514E045F002050DE072
:100DC00045F020050AE062690121019890476828F2
:100DD00002D045F0080505E045F40065626901218F
:100DE00001989047C4E9015765283DD019DC58287F
:100DF0007AD00CDC452837D004DC252826D04128C1
:100E000031D131E046282FD047282CD12CE05B2867
:100E100077D0612828D063287CD0642823D15AE079
:100E2000D0E06F2848D008DC66281DD067281BD08A
:100E3000692821D06E2816D127E0702845D0732864
:100E400068D0752847D078280DD14DE0A1690B985E
:100E50008847054625283FF469AFE1690B98884724
:100E60006D1C3FF46AAFB3E023466A466FF00100A1
:100E70000B9900F039F99EE045F040006060A8074A
:100E800023464FF0000236D43EE0E8077FF447AF38
:100E90002068011D21600068290501D506701BE747
:100EA000290701D5068017E7A90703D5F117C0E97F
:100EB000006111E706600FE745F040006060A80799
:100EC00023464FF0080216D41EE040F60E0125EA34
:100ED0000100606016E045F040006060A80723460E
:100EE0004FF00A0207D40FE045F040006060A80709
:100EF00008D5234610226FF001000B99AFF3008054
:100F000059E007E0234610226FF001000B99FFF72C
:100F100077FA50E04FF000094F464B46632802D065
:100F20005B2806D040E0E80601D40120A06001273C
:100F30003AE062690121019890475E2805D14FF09F
:100F400001096269494601989047216939B9002130
:100F50000A46534643F82120491C0829FADBB0B35E
:100F6000216969B9C11700EBD16253110AEB830102
:100F700022F01F02821A01200B68904003430B608D
:100F800062690121019890475D28E8D1B9F1000F0D
:100F900009D00020514651F82020D24341F82020AA
:100FA000401C0828F7DB02AB224600976FF00100D7
:100FB0000B99AFF3008000280CDA401C08D1BBF17C
:100FC000000F05D04FF0FF300DB0BDE8F08FFFE708
:100FD0004046F9E7E90701D108F1010806444FF05E
:100FE000000B79E6CCCCCC0C2DE9FF4F087881B012
:100FF0009946FF2805D0491C2D2804D00024002341
:1010000008E000230BE00124F9E703EB830300EB86
:101010004303491C0878FF28F7D104B15B42002044
:101020000090147801462D2C01D02B2C04D1521C99
:101030002D2C12D00024009400251678FF2E0ED0FF
:101040000A24A0FB04C801FB0481002700FB071150
:10105000521C16EB0C006941EFE70124EBE79944C1
:1010600050EA01020ED00024AA4D2646DFF8A882DD
:1010700000F0A5F982468B46B9F1000009DAC9F102
:1010800000071BE001980021C0E9001105B0BDE890
:10109000F08F074612E0F80707D022462B4630466D
:1010A0004146FFF707FB0646884622462B46104678
:1010B0001946FFF7FFFA04460D467F10002FEAD1CC
:1010C000B9F1000F324643465046594602DAFFF75F
:1010D00035FD01E0FFF7EEFA009A0AB181F0004118
:1010E000019AC2E90001D1E72DE9FF4F1F468DB0FB
:1010F000D7E901464FF0FF382E2045464FF0000952
:101100000B90B9696D1C0E988847396A82468847EA
:101110000028F6D1BAF1FF3F0AD024F4D064002EA3
:1011200011DDBAF12B0F08D0BAF12D0F0BD102E06F
:10113000404611B0ABE744F48064B9696D1C0E9869
:1011400088478246761E6946600501D52D2000E05D
:101150002B208DF8000001F1010B0DF1200809E0B2
:10116000B9696D1C0E98884782460F9844F4007444
:10117000761E0560002E02DDBAF1300FF0D00B991B
:101180008A453ED144F0800406E00F99681CA9F11D
:10119000010944F400740860B9696D1C761E0E984C
:1011A000884782463028F0D02BE00B998A4505D13C
:1011B000200603D444F08004761E18E0504601F067
:1011C000E9FB08B30DF11301761E44F400748B455E
:1011D00008D2AAF130000BF8010B200607D5A9F1BF
:1011E000010003E0200602D409F101008146A005B8
:1011F00002D50F99681C0860B9696D1C0E98884764
:101200008246002ED1DC53E0002E51DDBAF1650F8D
:1012100002D0BAF1450F4BD1A00549D5B9696D1C73
:1012200024F44074761E0E9888478246002E0CDD0A
:101230002B2804D0BAF12D0F07D144F48074B9697A
:101240006D1C0E9888478246761EE00501D52D213B
:1012500000E02B2108F8011BCDF82C8021E00DF1D6
:101260002901761E44F4007488450CD2AAF130009E
:1012700010F0FF0088F8000002D10B99884509D9C9
:1012800008F1010806E0E00501D5244801E042F23A
:101290000F708146B9696D1C0E98884782460F9879
:1012A0000560002E04DD504601F074FB0028D6D105
:1012B000F9690E988847FF208BF8000088F8000035
:1012C0000020069007904B466A4608A906A8FFF73B
:1012D0008BFEA00502D46FF001002AE714F0240F62
:1012E0000AD0E00714D1DDE906123868031D3B601F
:1012F0000068C0E900120BE0DDE90601FFF75FFAC4
:101300000146E00704D13868021D3A6000680160B8
:1013100028460EE7000024400000F03FF1D8FFFF10
:101320002DE9F05F82460078002715468B460AF1CA
:101330000104B946302801D09DB113E014F8010B27
:101340000127782803D0582801D045B10AE00DB113
:10135000102D07D10027102514F8010B02E00825F5
:1013600000E00A250026B0460EE005FB080005FB5C
:1013700006F1012701EB10461FFA80F8B6F5803F11
:1013800000D3B94614F8010B2946FFF77BFA002871
:10139000EBDABBF1000F05D00FB1641E00E054463C
:1013A000CBF80040B9F1000F06D001F0FFF902219F
:1013B0000160C81EBDE8F09F48EA0640FAE70EB596
:1013C00040F2334202920022CDE900221346FFF799
:1013D00067FB03B000BD00BFFEE7704772B600BFF9
:1013E000FEE7000003480068034909780844014902
:1013F000086070477C0000208400002010B50D4874
:10140000006840F400700B4908600846006840F42A
:10141000806008600846006840F48070086003201F
:1014200000F0D6F80F2000F007F800F055F8002083
:1014300010BD0000003C0240F0B587B00446002615
:10144000002700BF002000901E48006840F0010007
:101450001C4908600846006800F00100009000BFC9
:1014600000BF01A902A800F0C7F800F0EDF846009F
:101470001548B6FBF0F0471E14481549086040F2C5
:10148000E7311348C16047600021016181608161DB
:1014900000F0ECF8054695B90D4800F01BF905463B
:1014A0006DB9192000F042F8102C07D20022214615
:1014B000192000F04FF80748046000E00125284695
:1014C00007B0F0BD4438024040420F000000014028
:1014D000340500208000002008B500BF00200090E7
:1014E0001148006840F480400F49086008460068D1
:1014F00000F48040009000BF00BF00BF00200090BB
:10150000081F006840F08050091F08600846006806
:1015100000F08050009000BF00BF00220F21901EFD
:1015200000F018F808BD00004438024001460846A3
:1015300000280DDB00BF00BF00F01F0301229A400E
:1015400043099B0003F1E023C3F8002100BF00BF63
:1015500000BF70472DE9F05F80460D461646002714
:1015600001F0F4F8074639462A46334601F00700F1
:10157000C0F1070ABAF1040F02D94FF0040A01E0E2
:10158000C0F1070AD14600F1040ABAF1070F02D2EE
:101590004FF0000A01E0A0F1030AD4464FF0010A1F
:1015A0000AFA09FAAAF1010A0AEA020A0AFA0CFA84
:1015B0004FF0010B0BFA0CFBABF1010B0BEA030B29
:1015C0004AEA0B042146404601F0DCF8BDE8F09FF2
:1015D00000BF00F00702064B19684FF6FF031940E1
:1015E000044B0B4343EA0221014B196000BF7047D3
:1015F0000CED00E00000FA050F2202600D4A1268AF
:1016000002F0030242600B4A126802F0F0028260AC
:10161000084A126802F4E052C260064A126802F4F4
:101620006042D2080261044A126802F007020A60AE
:101630007047000008380240003C02400148006842
:10164000704700008800002000B5FFF7F7FF04494D
:101650000968C1F34231034A515CC84000BD000033
:1016600008380240487500087047704710B50446B6
:101670000CB9012010BD94F83D0028B9002084F871
:101680003C00204600F025F8022084F83D00211D92
:10169000206800F087FF012084F8460000BF84F82E
:1016A0003E0001213F2001554020015541200155B8
:1016B00000BF00BF012084F84200432001554420B0
:1016C00001554520015500BF012084F83D00002050
:1016D000D0E77047014691F83D00012801D0012074
:1016E0007047022081F83D000868C06840F00100A2
:1016F0000B68D8601A4B086898421BD00868B0F194
:10170000804F17D0174B0868984213D0164B0868C3
:1017100098420FD0154B086898420BD0144B0868BC
:10172000984207D0134B0868984203D0124B0868C0
:1017300098420CD10868806800F00702062A0CD095
:101740000868006840F001000B68186005E0086850
:10175000006840F001000B6818600020C0E700003E
:10176000000001400004004000080040000C004060
:10177000000401400040014000180040704770B56F
:1017800004462068C5682068066906F00200022841
:1017900019D105F00200022815D1401F2168086107
:1017A000012020772068806900F0030018B12046EE
:1017B000FFF7E4FF05E0204600F097F8204600F030
:1017C00095F80020207706F00400042819D105F0D0
:1017D0000400042815D1C043216808610220207745
:1017E0002068806900F4407018B12046FFF7C6FFFA
:1017F00005E0204600F079F8204600F077F8002058
:10180000207706F00800082819D105F008000828FC
:1018100015D1C04321680861042020772068C06981
:1018200000F0030018B12046FFF7A8FF05E02046AE
:1018300000F05BF8204600F059F80020207706F011
:101840001000102819D105F01000102815D1C04340
:1018500021680861082020772068C06900F4407082
:1018600018B12046FFF78AFF05E0204600F03DF85A
:10187000204600F03BF80020207706F0010048B138
:1018800005F0010030B16FF00100216808612046C9
:1018900000F02EF806F08000802809D105F08000C5
:1018A000802805D1C043216808612046FFF7DCFE8F
:1018B00006F04000402809D105F04000402805D13D
:1018C000C04321680861204600F01EF806F02000A1
:1018D000202809D105F02000202805D1C043216827
:1018E00008612046FFF7C1FE70BD704770470000D9
:1018F00010B5044603492068884201D1FFF772FD04
:1019000010BD000000000140704700BFFEE700006E
:1019100008B5054909680143034A11601146096881
:101920000140009100BF08BD3038024008B50549AC
:1019300009680143034A116011460968014000919A
:1019400000BF08BD4038024008B505490968014399
:10195000034A1160114609680140009100BF08BDAB
:1019600044380240F0B502460B46002400211868B6
:1019700090FAA0F0B0FA80F48AE00125A54018683A
:1019800000EA050100297DD05868012802D0586876
:1019900002281CD19868956891FAA1F6B6FA86F6E5
:1019A00077000326BE40B54391FAA1F6B6FA86F653
:1019B000760000FA06F63543956000BFD868556892
:1019C0008D4301FB00F63543556000BF00BF186929
:1019D000D56891FAA1F6B6FA86F677000326BE40DE
:1019E000B54391FAA1F6B6FA86F6760000FA06F645
:1019F0003543D56000BF5868022831D191FAA1F073
:101A0000B0FA80F0082814D25869156A91FAA1F644
:101A1000B6FA86F6B7000F26BE40B54391FAA1F696
:101A2000B6FA86F6B60000FA06F63543156200BF30
:101A300016E05869556A0E0A96FAA6F6B6FA86F6C0
:101A4000B7000F26BE40B5430E0A96FAA6F6B6FAC0
:101A500086F6B60000FA06F63543556200BF00BFB1
:101A60005868156891FAA1F6B6FA86F6770003264B
:101A7000BE40B54391FAA1F6B6FA86F6760000FAB2
:101A800006F600E003E03543156000BF00BF641CAC
:101A90001868E04000287FF470AFF0BD026822F4BF
:101AA00080620A430260704708B54169009100BF37
:101AB0008169009100BF08BDF0B5002400252B4EC0
:101AC000B1FBF6F4466826F03F0626434660284EF2
:101AD000B24201D8661C07E04FF4967666434FF495
:101AE0007A77B6FBF7F6761C076A27F03F073E4386
:101AF00006621F4EB24224D96BB902EB4206B1FB1B
:101B0000F6F6C6F30B060EB9012615E002EB420607
:101B1000B1FBF6F610E002EBC20606EB0216B1FBD3
:101B2000F6F6C6F30B060EB9012605E002EBC20677
:101B300006EB0216B1FBF6F646F4004646EA03054C
:101B40000CE05600B1FBF6F6C6F30B06042E01D2EC
:101B5000042602E05600B1FBF6F63546C6694CF69F
:101B6000FF77BE432E43C661F0BD000040420F0028
:101B7000A0860100016841F480710160704701682E
:101B800041F40071016070477FB504460D4600BF07
:101B9000206820F00100206000BF684600F047F890
:101BA000D5E9012320460299FFF786FF6969E868B5
:101BB000A26848F2FF339A4340EA01031A43A26045
:101BC00000BF2868216821F01A010143216000BF8D
:101BD00000BF206840F00100206000BF2869216834
:101BE00021F480610143216000BF002004B070BD7A
:101BF00001464869C0F34000704701468869C0F358
:101C00004000704701464869C0F3801070470146A4
:101C1000486900F00100704701464869C0F3C010F0
:101C20007047026922F0FF020A430261704710B553
:101C3000044600F0A5FB2060206800F06DFB6060AA
:101C4000606800F079FBA060606800F087FBE060EE
:101C500010BD000002480068C0F388107047000003
:101C600004380240014908607047000088000020E5
:101C7000016921F490410161416921F02A0141612A
:101C80007047C16841F40051C16070472DE9FF41C0
:101C900004460D4601270026204600F068F800287B
:101CA00045D1E9686868084329690843A969084378
:101CB000E16849F20C6291430843E060A868216939
:101CC00021F440510143216100BF6869616921F439
:101CD00040710143616100BF6846FFF7A8FF1648E5
:101CE000844201D1039E17E01448844201D1029E30
:101CF00012E01348844201D1029E0DE01148844253
:101D000001D1039E08E01048844201D1029E03E005
:101D10000E48844200D1029E4EB1286838B1002797
:101D2000314620462B68AA6900F026F800BF3846E5
:101D300004B0BDE8F0810000001001400044004004
:101D40000048004000140140004C0040005000409A
:101D500001460868C0F38010704701460868C0F368
:101D60008010704701460868C0F380107047014634
:101D7000C868C0F3403070472DE9FC5F06460C464A
:101D800091461D46B9F5004F68D10220A0FB0570B1
:101D900003461920A4FB00A001463A465046FEF730
:101DA0006FFA6421B0FBF1F04FEA001A0220A0FBA9
:101DB00005710B461920A4FB00B13A465846FEF7C0
:101DC0005FFA83460220A0FB057003461920A4FB9E
:101DD00000013A46CDE90001FEF752FA6421B0FB5A
:101DE000F1F000EBC00101EB0010ABEB8000322101
:101DF00001EBC0006421B0FBF1F000F0F8000AEB49
:101E0000400A0220A0FB057003461920A4FB00B184
:101E10003A465846FEF734FA83460220A0FB057086
:101E200003461920A4FB00013A46CDE90001FEF764
:101E300027FA6421B0FBF1F000EBC00101EB0010C8
:101E4000ABEB8000322101EBC0006421B0FBF1F06C
:101E500000F00700504480B2B06067E00420A0FBAF
:101E6000057003461920A4FB00A001463A465046DF
:101E7000FEF706FA82460420A0FB05711920A4FB98
:101E800000B084463A460B4658466146FEF7F8F9DC
:101E90006421B0FBF1F000EBC00101EB0010AAEBF4
:101EA0008000322101EB00106421B0FBF1F000F062
:101EB000F00A0420A0FB057003461920A4FB00B023
:101EC00001463A465846FEF7DBF96421B0FBF1F0D3
:101ED0000AEB001A0420A0FB057003461920A4FB9E
:101EE00000B13A465846FEF7CBF983460420A0FBE2
:101EF000057003461920A4FB00013A46CDE9000114
:101F0000FEF7BEF96421B0FBF1F000EBC00101EB7C
:101F10000010ABEB8000322101EB00106421B0FB1C
:101F2000F1F000F00F00504480B2B060BDE8FC9FBB
:101F300010B50420FFF7ECFC8020FFF7E9FC01203E
:101F4000FFF7E6FC0220FFF7E3FC10BD00B58DB003
:101F5000182107A8FEF7DEF9182101A8FEF7DAF923
:101F60000220FFF7D5FCC020019002200290032040
:101F7000039001200490002005900420069001A900
:101F80001B48FFF7EFFC4FF40010FFF7CFFC00BF3A
:101F90001848C06820F001001649C86000BF00BFA3
:101FA0000846006820F04000086000BF00BF0846F7
:101FB000006820F08000086000BF002007900E48F5
:101FC0000890002009900A9008150B9000010C90D1
:101FD00007A90848FFF7D8FD00200649C96821F085
:101FE000FE010143034AD16000BF0DB000BD0000F7
:101FF0000004024000540040A086010030B58DB0BE
:102000001C2106A8FEF786F918216846FEF782F91A
:102010004FF40020FFF78AFC0420FFF779FC4FF40F
:102020004060009002200190032002900020039065
:1020300004900820059069461448FFF793FC00F0CF
:102040007DFB05460022052100F046F904462146A5
:10205000342000F083FB342000F05EFB4FF4E130CD
:10206000069000200790089009900C200A9000200C
:102070000B900C9006A90648FFF708FE0448FFF7EE
:10208000F7FD0348FFF7FDFD0DB030BD000802402D
:10209000004C004000B58DB01C2106A8FEF73AF9AF
:1020A00018216846FEF736F91020FFF74DFC012095
:1020B000FFF72EFC4FF4C060009002200190032037
:1020C00002900020039004900720059069460D4877
:1020D000FFF748FC4FF4E13006900020079008908D
:1020E00009900C200A9000200B900C9006A906483D
:1020F000FFF7CCFD0448FFF7BBFD0348FFF7C1FD28
:102100000DB000BD000002400010014030B58DB0A0
:102110001C2106A8FEF7FEF818216846FEF7FAF81B
:102120004FF40030FFF702FC0120FFF7F1FB0C2019
:102130000090022001900320029000200390049060
:102140000720059069461548FFF70CFC00F0F6FAE9
:1021500005460022052100F0BFF80446214626204E
:1021600000F0FCFA262000F0D7FA4FF4E130069098
:1021700000200790089009900C200A9000200B90F6
:102180000C9006A90648FFF781FD0548FFF770FD92
:102190000348FFF776FD0DB030BD0000000002409F
:1021A0000044004030B58DB01C2106A8FEF7B2F8FF
:1021B00018216846FEF7AEF84FF48020FFF7B6FB13
:1021C0000220FFF7A5FB4FF4406000900220019031
:1021D0000320029000200390049007200590694698
:1021E0001448FFF7BFFB00F0A9FA054600220521BD
:1021F00000F072F804462146272000F0AFFA2720AD
:1022000000F08AFA4FF416500690002007900890CC
:1022100009900C200A9000200B900C9006A906480B
:10222000FFF734FD0448FFF723FD0348FFF729FDBE
:102230000DB030BD000402400048004030B58DB004
:102240001C2106A8FEF766F818216846FEF762F81A
:102250002020FFF779FB0420FFF75AFBC0200090F5
:102260000220019003200290002003900490082097
:10227000059069461448FFF775FB00F05FFA0546C4
:102280000022052100F028F804462146472000F0EE
:1022900065FA472000F040FA4FF4165006900020EF
:1022A0000790089009900C200A9000200B900C9049
:1022B00006A90648FFF7EAFC0448FFF7D9FC0348E3
:1022C000FFF7DFFC0DB030BD0008024000140140F4
:1022D00000BFFEE700BFFEE7F0B503460C4603F083
:1022E0000701C1F10700042801D9042001E0C1F170
:1022F00007000646081D072801D2002000E0C81E7E
:1023000005460120B040401E2040A8400127AF40B4
:102310007F1E17403843F0BD014600BF04480068E7
:1023200000F0F0000009034A125C21FA02F0704745
:102330000838024038750008014600BF05480068AB
:1023400000F4E050044A02EB9020027821FA02F0F7
:10235000704700000838024048750008014600BF79
:102360000548006800F46040044A02EB50300278EF
:1023700021FA02F070470000083802404875000852
:1023800010B5002400BF0C48006800F00C0020B11C
:10239000042804D0082809D103E0084C08E0074CC1
:1023A00006E0082000F00CF8044601E0034C00BFF2
:1023B00000BF204610BD0000083802400024F40091
:1023C0002DE9F041044600250026002700BF1548EE
:1023D000006800F4800006461EB1B6F5800F04D1F7
:1023E00001E0114D03E0104D01E00F4D00BF00BFB3
:1023F000082C14D100BF0B48006800F03F00B5FB6B
:10240000F0F8FFF727FC08FB00F80648006800F426
:102410004030012101EB10404000B8FBF0F7384696
:10242000BDE8F081043802400024F40010B54FF0FC
:10243000E020006904F0BCFD012801D004F072F92D
:1024400010BD000070B503204849096821F007015C
:102450000143464A116000BF00BF00BF4348006807
:1024600000F007000328F8D14FF480404049096884
:1024700021F4804101433E4A116000BF00BF3D4846
:10248000006840F480303B49086000BF00BF00BFD7
:1024900038480068C0F340400028F8D04FF480006E
:1024A0001021C022002340EA010444EA8214314D85
:1024B0002D1D2D68304E35402C432E4D2D1D2C608A
:1024C0002C46246824F440341C432C6000BF00BF19
:1024D000281F006840F08070291F086000BF00BFFF
:1024E00000BF24480068C0F340600028F8D000BF57
:1024F00000BF1F484068C0F380300028F8D000209B
:102500001C490831096821F0F0010143194A0832D9
:10251000116000BF4FF4A0501146096821F4E0514A
:102520000143116000BFC0001146096821F46041F9
:102530000143116000BF02201146096821F0030128
:102540000143116000BF00BF00BF0A4808300068A7
:1025500000F00C000828F7D10848FFF783FB0F2094
:10256000FEF76AFF08B1FEF739FF70BD003C02407C
:1025700000700040003802400080BFFF00D8B8055E
:102580000348006840F4700001490860704700008B
:1025900088ED00E010B50248FFF7F1F810BD00002B
:1025A0003405002010B502682D4B98420ED0B0F1D2
:1025B000804F0BD02B4B984208D02B4B984205D024
:1025C0002A4B984202D02A4B984203D122F0700243
:1025D0004B681A43224B984220D0B0F1804F1DD057
:1025E000204B98421AD0204B984217D01F4B98424C
:1025F00014D01F4B984211D01E4B98420ED01E4B48
:1026000098420BD01D4B984208D01D4B984205D0E4
:102610001C4B984202D01C4B984203D122F44072CA
:10262000CB681A4322F080034C6943EA040202603B
:102630008B68C3620B688362094B984202D00C4BD3
:10264000984201D10B69036301234361036903F0DD
:1026500001031BB1036923F00103036110BD0000F6
:10266000000001400004004000080040000C004051
:102670000004014000400140004401400048014086
:1026800000180040001C00400020004010B5024827
:1026900000F0F2FD10BD00004804002010B5024813
:1026A00000F0B2FF10BD00006404002010B5024825
:1026B00001F012FC10BD00001801002010B5024806
:1026C00003F03CFB10BD00008004002000BFFEE7CB
:1026D0000FB4054B10B503A9044A029800F062F943
:1026E00010BC5DF814FB0000E1350008100100206B
:1026F0000FB41CB50A46521ECDE9000207A9054BCE
:102700006A46069800F04EF9009A002111701CBC30
:102710005DF814FBD330000800280DDB00BF00BFBC
:1027200000F01F02012191404209920002F1E022D3
:10273000C2F8001100BF00BF7047000002480068E7
:10274000C0F30220704700000CED00E00248006872
:10275000C0F30220704700000CED00E010B5002827
:1027600004DB0A07130E054A135406E00A07140E89
:10277000034A00F00F031B1FD45410BD00E400E017
:1027800018ED00E010B5002804DB0A07130E054A17
:10279000135406E00A07140E034A00F00F031B1F30
:1027A000D45410BD00E400E018ED00E0004870478C
:1027B00014010020EFF305807047000000000000C6
:1027C00030B583B0044600F017F89FED090B0546BD
:1027D0008DED000B002221466846FEF7B0F8284632
:1027E00000F020F89DED000B03B030BD00000000AC
:1027F0000000000000000000014800687047000071
:102800001401002002E008C8121F08C1002AFAD1F2
:1028100070477047002001E001C1121F002AFBD160
:102820007047000001490860704700001401002053
:102830002DE9FF5FDDE90220010DDDF838B002432C
:1028400018D044F61050A1F2FF3141430D140F98F7
:10285000012820D0A5EB0B00401C5FEA000A4FF0D6
:102860000004474EDFF81C91A046504616D5CAF129
:10287000000728E00F98012443A2012808D0002176
:1028800000980F9BC0E90021C0E90243BDE8FF9F0B
:102890006FEA0B01F4E7CBF10000DEE7074612E038
:1028A000F80707D02246334640464946FDF702FF67
:1028B000804689462246334610461946FDF7FAFE01
:1028C00004460E467F10002FEAD1DDE90201BAF17D
:1028D000000F42464B4602DAFDF7ECFE01E0FEF740
:1028E0002DF904460E460022284BFEF7AFF903D817
:1028F0004FF0FF30014607E00022254B20463146CD
:10290000FDF731FEFEF789F9102409E0002C0ADBFF
:102910000A220023FDF7B4FC019B30321A55641ED5
:1029200050EA0102F2D1641C019AC4F1110314446B
:102930000F9A012A03D0012208430DD10AE008436F
:1029400004D000204FF0110B0F9080E7A3EB0B0594
:102950006D1E0DE05B4504DD4FF0000205F1010541
:1029600004E003DA4FF00002A5F10105002AECD0E3
:1029700000980F99C0E90231C0E9004586E70000E0
:10298000000024400000F03F300000000000F04351
:102990000000E03F30380A2801D2012070470020B3
:1029A000704700002DE9FF4F95B09B4689460646CB
:1029B00000250FE2252877D100242746F84A012177
:1029C000059400E0044316F8013F203B01FA03F0B0
:1029D0001042F7D130782A2811D06FF02F033078C9
:1029E000A0F13002092A16D8059A44F0020402EB3D
:1029F000820203EB42021044761C0590EFE759F87F
:102A0000042B0592002A03DA504244F40054059046
:102A100044F00204761C30782E2816D116F8010FE7
:102A200044F004042A280DD06FF02F023078A0F172
:102A30003003092B09D807EB870302EB4303C718C0
:102A4000761CF3E759F8047B761C30786C280FD09D
:102A500006DC4C2817D068280DD06A2814D104E071
:102A6000742810D07A280FD10DE044F400140AE045
:102A700044F4801401E044F440147278824202D19C
:102A800004F58014761C761C307866280BD013DC95
:102A9000582877D009DC002875D04528F6D046287C
:102AA000F4D047281AD19DE118E0632835D0642876
:102AB00079D0652812D195E1702873D008DC672899
:102AC000F1D069286FD06E280DD06F2806D1B5E0FF
:102AD00073282CD0752875D0782874D05A46179949
:102AE00090476D1C75E1C4F30250022809D00328F9
:102AF0000DD0D9F8001004280DD00D6009F104099B
:102B000067E1D9F80010EA17C1E90052F6E7D9F8F1
:102B100000100D80F2E70D70F0E719F8041B8DF836
:102B2000001000208DF80100EA46012003E059F86A
:102B300004AB4FF0FF3061074FF0000102D40DE00D
:102B400008F101018846B9420FDA8045F8DB1AF82E
:102B500008100029F4D108E008F1010188468142FB
:102B6000FADB1AF808100029F6D105985B46A0EBAD
:102B7000080721463846179A00F094FA284400EBDB
:102B8000080507E04DE029E10DE01AF8010B5A466F
:102B900017999047B8F10108F7D25B4621463846AD
:102BA000179A13E142E00A220092C4F302524FF056
:102BB000000A022A08D059F804CB032A4FEAEC7124
:102BC0000AD00DE029E02AE009F1070121F007020F
:102BD000F2E802C1914609E00FFA8CFC4FEAEC7171
:102BE000042A03D14FFA8CFC4FEAEC71002907DA72
:102BF0000A460021DCF1000C61EB02012D2202E00B
:102C0000220504D52B228DF80420012203E0E207DF
:102C100001D02022F7E7904659E00A2102E0102275
:102C20000DE010214FF0000A00910BE010224FF050
:102C3000000A44F004040827009203E008224FF041
:102C4000000A0092C4F30252022A05D059F804CBBC
:102C50000021032A08D009E009F1070121F0070249
:102C6000F2E802C1914605E01FFA8CFC042A01D16A
:102C70000CF0FF0C4FF00008220728D5702806D072
:102C8000009B83F0100353EA0A0305D00EE04022B4
:102C90008DF80420012208E05CEA010206D030220F
:102CA0008DF804208DF8050002229046009B83F0E9
:102CB000080353EA0A030AD15CEA010201D1620760
:102CC00005D530228DF804204FF001087F1E5828CA
:102CD00004D034A003900EA802900DE036A0F9E7CE
:102CE00053466046009AFDF7CBFA84460398825C0F
:102CF0000298401E029002705CEA0100F0D1029836
:102D000006A9081A00F1200A600702D524F48034CD
:102D100000E00127574502DDA7EB0A0000E0002094
:102D200000EB0A01009005984144401A0590E00329
:102D300006D45B462146179A059800F0B3F905447E
:102D4000002706E001A85A46C05D179990476D1C00
:102D50007F1C4745F6DBE0030CD55B462146179AFE
:102D6000059800F09FF9054404E030205A46179971
:102D700090476D1C0099481E00900029F5DC08E082
:102D8000029802995A460078491C02911799904777
:102D90006D1CBAF10001AAF1010AF1DC65E1000045
:102DA0000928010030313233343536373839616221
:102DB00063646566000000003031323334353637E5
:102DC00038394142434445460000000000F058F9BC
:102DD0000544761C307800287FF4ECAD19B0284605
:102DE000BDE8F08F620700D4062709F1070222F040
:102DF000070CFCE80223E14603F000485FEA080CF8
:102E000002D00FF2702C0DE05FEA045C02D50FF2E5
:102E1000682C07E05FEAC47C02D00FF2602C01E06E
:102E2000AFF2700C4FF0FF3823F00043CDF850C0E4
:102E300065280CD006DC452809D046281DD0472837
:102E40003DD13DE0662818D067287ED138E00021CA
:102E5000112F01DB112000E0781CCDE9000106A94B
:102E60000EA8FFF7E5FCDDE90F010E9A03910021A2
:102E7000009207F1010A04914DE04FF000400097E5
:102E8000CDE9011006A90EA8FFF7D2FCDDE90F027B
:102E900003920E9B11990022DDF80CA0009304927E
:102EA00011B9791C00EB010AB7EB0A0004D4C0F198
:102EB000FF3007F1010A0490AAEB0700019044E0FB
:102EC000012F00DA01270021112F01DD112000E080
:102ED0003846CDE9000106A90EA8FFF7A9FCDDE9F7
:102EE0000F010E9A0391002104910092BA46210726
:102EF0000CD40399514500DA8A46BAF1010F05DD79
:102F0000009AAAF10101515C302908D0B84202DAD6
:102F100010F1040F06DA0121CDE9011015E0AAF144
:102F20000101E9E7002805DC049901440491AAEBBA
:102F3000000102E0411C514500DD8A460499401A17
:102F4000401C01904FF000400290200704D40198EB
:102F5000504501DBCDF8048000208DF84F00029829
:102F60000DF14F07B0F1004F25D02B200E900298A5
:102F70004FF0020800280CDA404202902D200E90FB
:102F800007E00A210298FDF736FC3031029007F87D
:102F9000011DB8F10001A8F10108F2DC0298002837
:102FA000EFD1791E0E980870307800F0200040F0C4
:102FB000450007F8020D12A8C01B00F1070814987D
:102FC000007800B1012000EB0A01019801EBE071EB
:102FD00005984144401A401E0590E00306D45B4624
:102FE0002146179A059800F05DF80544149800787A
:102FF00018B15A46179990476D1CE00324D55B46DB
:103000002146179A059800F04DF805441CE00498F5
:10301000002807DBDDE90301884203DD0098405CFE
:10302000179901E0179930205A469047049805F106
:103030000105401C04900198401E019004D12E20EF
:103040005A46179990476D1CBAF10001AAF1010A7E
:10305000DDDC05E017F8010B5A46179990476D1C07
:10306000B8F10001A8F10108F4DC5B462146179A8B
:103070000598ABE62D0000002B00000020000000AA
:103080002DE9F041044600251E461746880404D465
:1030900005E039462020B0476D1C641EF9D528464E
:1030A000BDE8F0812DE9F041044600251E4690461A
:1030B000C80301D5302700E02027880404D505E0A7
:1030C00041463846B0476D1C641EF9D52846BDE818
:1030D000F0814A68002A06D00A68531C0B60107001
:1030E0004868401E4860704710B5044605222146D6
:1030F000064800F0ABFF064A0021064801F09CFD9F
:103100000549086005A0FFF7E3FA10BD180100208B
:10311000647400083131000800000020696E697491
:10312000206174676D20756172743A6F6B0D0A00CF
:103130001CB5114800F0B3FE1DE002E0012001F0D3
:1031400025FD0D490022486E694603F041FD012826
:10315000F4D10949684600F0D3FFDDE90001FDF72D
:10316000D9F8054900231A46886E694603F0DEFB4C
:10317000012001F00BFDE0E71801002070B50646C4
:103180000C46204600F020F80121204600F060F8AF
:10319000204600F064F8002505E02068415D07A0A6
:1031A000FFF796FA6D1C2079A842F6DC05A0FFF720
:1031B0008FFA2146304600F0DAF970BD25327820CA
:1031C000000000000D0A0000AA21026811705521BC
:1031D000026851700179891C0171704730B5057919
:1031E00004682C4421600479241D04710579046865
:1031F0002C4422600479241D0471057904682C4450
:1032000023600479241D047130BD01B52DED060B3A
:10321000027901681144009A0A60019A4A600179B2
:1032200008310171027901681144029A0A60039A17
:103230004A60017908310171027901681144049AE8
:103240000A60059A4A6001790831017107B000BD32
:1032500003790268D1540279521C027170475521DA
:1032600003790268D154AA220179491C03685A548F
:103270000179891C0171704738B5044620680168DE
:10328000C1F3401189B1606878B120684268D2B258
:103290001146207A62681154207A401C20722068FE
:1032A0006FF02002026000BF31E020680168C1F3C6
:1032B000001100292BD020680168009100BF4168EF
:1032C000009100BF00BF002304F11802211DE06837
:1032D00003F000FC012802D00DA0FFF7F9F904F17A
:1032E0001802211D206903F027FD012801D00020CC
:1032F000606000212172A069012806D100070A49F7
:103300000860BFF34F8FBFF36F8F0020A06138BDFF
:10331000617564696F2073656E64206D73672066E4
:1033200061696C65640D0A0004ED00E070B52DED77
:10333000068B04462679002021688855002505E083
:103340002068415D29A0FFF7C3F96D1CB542F7DB8A
:1033500028A0FFF7BDF920680078022825D1206851
:103360004078012821D124480068FDF715FA41EC86
:10337000180B22480068FDF70FFA41EC190B2048A2
:103380000068FDF709FA41EC1A0BB0EE482AF0EE9E
:10339000682AB0EE491AF0EE691AB0EE4A0AF0EE69
:1033A0006A0A184800F0D8FB1CE02068007803285F
:1033B00005D120684078401E1349086012E020685B
:1033C000007804280ED12068407801280AD10F49DE
:1033D0000FA0FFF77DF91048008882B20F4910480E
:1033E00002F000FCBDEC068B70BD00002532782099
:1033F000000000000D0A00005800002054000020CA
:1034000050000020640400204800002088010020B3
:10341000676F3A25730D0A002C0000207C03002002
:1034200080040020F8B504460D4625600021217275
:103430000020606000220821052003F08DF9E06083
:103440000020A06100220421052003F085F92061FD
:10345000206800BF00BF00BF00F10C0252E8002F3F
:1034600042F0200100F10C0242E80013002BF3D1DE
:1034700000BF00BF206800BF00BF00BF00F10C020A
:1034800052E8002F42F0100100F10C0242E8001354
:10349000002BF3D100BF00BF00260AE0642002F039
:1034A00039F9009000231A466946206903F03EFA74
:1034B000761C052EF2DB0022211D206903F088FB1B
:1034C000044A2146044801F0B7FB606103A0FFF7FE
:1034D000FFF8F8BD90740008A7350008696E69749C
:1034E00020617564696F20756172743A6F6B0D0AA3
:1034F000000000002DE9F0412DED068B07460C463B
:1035000015461E46B0EE408AF0EE608AB0EE419A53
:10351000F0EE619AB0EE42AAF0EE62AADDF83080D9
:103520002046FFF751FE02212046FFF791FE434659
:10353000324629462046FFF751FEB0EE4A2AF0EE09
:103540006A2AB0EE491AF0EE691AB0EE480AF0EEB7
:10355000680A2046FFF759FE2046FFF780FE214605
:10356000384600F004F8BDEC068BBDE8F08170B57C
:1035700004460D4600260BE000BF2068FEF7E8FB7E
:103580000028FAD020682A68915D416000BF761C4F
:103590002879B042F0DC00BF2068FEF7D9FB002894
:1035A000FAD0012070BD1CB50446254616E002E0A5
:1035B000642001F0EBFA00226946E86803F008FB9A
:1035C0000128F5D16846FFF7B1FE00231A46694687
:1035D000286903F0ABF9012001F0D8FAE7E7000011
:1035E00008B50A46C1B200919DF80010054B59601C
:1035F00000BF00BF00BF03490968C1F3C011002923
:10360000F8D008BD0010014038B5044620680168B4
:10361000C1F3401189B1606878B120684268D2B2C4
:103620001146D4E901201154A068401CA060206814
:103630006FF02002026000BF00BF20680168C1F384
:10364000001100292FD020680168009100BF416857
:10365000009100BF00BF0021D4E9012011540023D4
:1036600004F11802211DE06803F034FA012802D0A9
:103670000DA0FFF72DF804F11802211D206903F0B9
:103680005BFB012801D0002060600021A160A069DF
:10369000012806D100070B490860BFF34F8FBFF325
:1036A0006F8F0020A06138BD6869333836312073D0
:1036B000656E64206D7367206661696C65640D0AD0
:1036C0000000000004ED00E0F8B504460E46154683
:1036D000266000220821284603F03EF8E060002121
:1036E000A16000206060A061206800BF00BF00BF33
:1036F00000F10C0252E8002F42F0100100F10C0220
:1037000042E80013002BF3D100BF00BF206800BFC8
:1037100000BF00BF00F10C0252E8002F42F0200170
:1037200000F10C0242E80013002BF3D100BF00BFF0
:10373000144A2146144801F07FFA606100220421F6
:10374000284603F009F8206100270BE04FF4807051
:1037500001F0E0FF009000231A466946206903F05B
:10376000E5F87F1CAF42F1DB0022211D206903F048
:103770002FFA642001F0CEFF0449086004A0FEF790
:10378000A7FFF8BDBC740008BD3B00081C0000206A
:10379000696E6974206869333836312075617274D6
:1037A0003A6F6B0D0A0000002DE9F0432DED068BFA
:1037B00081B0044600260027B04652A12068FCF7DD
:1037C000E1FD814650494846FCF7CDFD70B94F49AF
:1037D0004F48FFF7D3FC4FA0FEF77AFF00204B497C
:1037E000087101B0BDEC068BBDE8F0834BA14846E3
:1037F000FCF7B9FD78BB43A10020FCF7C3FD81466F
:103800004846FEF7DDFFB0EE408AF0EE608A3DA14B
:103810000020FCF7B7FD81464846FEF7D1FFB0EE29
:10382000409AF0EE609A37A10020FCF7ABFD81468C
:103830004846FCF78BFE054651EC180BFCF7BFFF22
:10384000384941F8250051EC190BFCF7B8FF36490F
:1038500041F8250054E0FFE74846FCF777FE0646AE
:1038600028A10020FCF78EFD81464846FCF76EFE3D
:10387000074624A10020FCF785FD81464846FCF759
:1038800065FE804629480068FCF786FF41EC180B6E
:1038900027480068FCF780FF41EC190B25480068B9
:1038A000FCF77AFF41EC1A0BB0EE482AF0EE682ADA
:1038B000B0EE491AF0EE691AB0EE4A0AF0EE6A0A62
:1038C00033463A4611491248CDF80080FFF712FE00
:1038D0000CA10020FCF756FD81464946164802F02F
:1038E00041F91649086008460068002805DD1249BC
:1038F000134802F05AF91149086000200349087181
:1039000000BF6EE73A000000240000201C000020E9
:1039100048040020616C61726D0D0A00706167657A
:1039200000000000300000203C0000205800002073
:103930005400002050000020880100202C000020AE
:103940007C03002070B52DED068B84B005460C4637
:103950001646B0EE408AF0EE608AB0EE419AF0EE84
:10396000619AB0EE42AAF0EE62AA1DB104F118000D
:10397000B04204D3002004B0BDEC068B70BD8DEDC9
:10398000029B8DED008B281903A23146FEF7B0FE95
:1039900004442046EFE7000073252E36662C252EC2
:1039A0003666650070B52DED068B84B005460C4675
:1039B0001646B0EE408AF0EE608AB0EE419AF0EE24
:1039C000619AB0EE42AAF0EE62AA1DB104F11800AD
:1039D000B04204D3002004B0BDEC068B70BD8DED69
:1039E000029B8DED008B281903A23146FEF780FE65
:1039F00004442046EFE7000074252E36662C252E61
:103A0000366665002DE9F04104460D4617462DB98E
:103A10000EA0FEF75DFE0020BDE8F08100260AE062
:103A200000BF2068FEF799F90028FAD0A95D206848
:103A3000416000BF761CBE42F2DB00BF2068FEF78B
:103A40008CF90028FAD00120E6E700006572726F59
:103A500072206F6363757220696E2068693338362F
:103A6000312073656E64206D73670D0A00000000DD
:103A700070B52DED0C8B9AB00446B0EE408AF0EE96
:103A8000608AB0EE419AF0EE619AB0EE42AAF0EE92
:103A900062AA642101A8FCF73DFC64250026B0EE73
:103AA0004A2AF0EE6A2AB0EE491AF0EE691AB0EE30
:103AB000480AF0EE680A2A46314601A8FFF742FF9D
:103AC00006462248224A126800EB820090ED000A66
:103AD00010EE101A0846FCF75FFE41EC1B0B1D4868
:103AE0001B4A126800EB820090ED000A10EE101ADB
:103AF0000846FCF751FE41EC1C0B1448144A1268AE
:103B000000EB820090ED000A10EE101A0846FCF758
:103B100043FE41EC1D0BB0EE4B2AF0EE6B2AB0EEEB
:103B20004C1AF0EE6C1AB0EE4D0AF0EE6D0A2A4611
:103B3000314601A8FFF736FF06462A4601A920466E
:103B4000FFF760FF1AB0BDEC0C8B70BD3000002099
:103B5000480000203C00002070B52DED068B8EB093
:103B60000446B0EE408AF0EE608AB0EE419AF0EE84
:103B7000619AB0EE42AAF0EE62AA342101A8FCF7E5
:103B8000C9FB32260025B0EE4A2AF0EE6A2AB0EED2
:103B9000491AF0EE691AB0EE480AF0EE680A3246A9
:103BA000294601A8FFF7FEFE0546324601A9204638
:103BB000FFF728FF0EB0BDEC068B70BD1CB50446A8
:103BC000254616E002E0012000F0E0FF00226946F1
:103BD000E86802F0FDFF0128F5D16846FFF7E4FD33
:103BE00000231A466946286902F0A0FE012000F071
:103BF000CDFFE7E710B5044608A0FEF769FD08A071
:103C0000FEF766FD10A02169FEF762FD04A0FEF735
:103C10005FFD02A0FEF75CFD10BD00000A0D000074
:103C20002A2A2A2A2A2A2A2A2A2A2A2A2A2A2A2AF4
:103C30002A2A2A2A2A2A2A2A2A2A2A2A2A2A2A2AE4
:103C40002A2A2A2A2A0A0D0025730A0D00000000DC
:103C50008AB0FDF7D3FBFEF7F5FBFEF769F9FEF737
:103C600075F9FEF7CBF9FEF715FAFEF74FFAFEF7F6
:103C700099FAFEF7E3FA2422124901A8FCF731FB76
:103C800000F094FF01AA00210F4800F0D5FF0F4972
:103C900008600F48FFF728FA0E490F48FFF7C2FBEC
:103CA00005220E490E48FFF70FFD05220D490E486B
:103CB00002F0A8F80D490E4801F0FAFD00F08CFF63
:103CC00000BFFEE7E8740008F53C00084C00002047
:103CD00000480040004C00404804002000440040E0
:103CE000640400200014014080040020A00400208F
:103CF000005400402DED068B84B04C4800F0CFF806
:103D00001F224B494B4801F06DFF8DE0474800F002
:103D1000C3F804464748017F47A0FEF7D9FC34B1F9
:103D200049A0FEF7D5FC4148FFF764FF0AE04AA02E
:103D3000FEF7CEFC3D48FFF75DFF4FF47A7000F0D0
:103D400025FF71E049480068FCF726FD41EC180B9F
:103D500047480068FCF720FD41EC190B8DED008B06
:103D600053EC192B43A0FEF7B3FC03A92F4800F036
:103D70004BF902A92D4800F058F99DED030AF2EE27
:103D8000040AB4EEE00AF1EE10FA24DD9DED030A18
:103D9000DFED3D0AB4EEE00AF1EE10FA1BD29DED24
:103DA000020AF2EE040AB4EEE00AF1EE10FA12DDB5
:103DB0009DED020ADFED350AB4EEE00AF1EE10FAED
:103DC00009D29DED030A2A4880ED000A9DED020A02
:103DD000264880ED000A2E480068FCF7DDFC41EC27
:103DE000180B22480068FCF7D7FC41EC190B20485F
:103DF0000068FCF7D1FC41EC1A0BB0EE482AF0EE5B
:103E0000682AB0EE491AF0EE691AB0EE4A0AF0EEEE
:103E10006A0A2048FFF72CFE044800F040F84FF4EF
:103E20007A7000F0B3FE00BF70E7000018010020B8
:103E30005C0000208004002073796E20737461742C
:103E40003A25780D0A0000006174676D20697320BF
:103E500072656164790A0D006174676D2069732071
:103E60006E6F742072656164790A0D005400002041
:103E7000500000206C616C3A252E37662C6C6F6EFA
:103E80003A252E37660D0A000000B4420000344384
:103E900058000020640400200146487E704710B599
:103EA000044602E0012000F071FE207E0028F9D1D6
:103EB000012020760020A08384F8480084F8540074
:103EC0004FF48061A068FCF725FA0021E160002032
:103ED0006076207610BD000038B504462068016881
:103EE000C1F34011A1B1A06890B120684268D2B27C
:103EF0001146E068B0F5806F04D2E368581CE060BA
:103F0000A068C15420686FF02002026000BF3CE04E
:103F100020680168C1F30011002936D020680168CB
:103F2000009100BF4168009100BF00BF002304F171
:103F30006C0204F10801606E02F0CCFD01280BD088
:103F4000606E02F08EF8054629461048FEF7C0FB69
:103F50000F48E168FEF7BCFB04F16C0204F10801B4
:103F6000A06E02F0E9FE012801D00020A06000212F
:103F7000E160E06E012806D1000706490860BFF342
:103F80004F8FBFF36F8F0020E06638BDE4750008E7
:103F90000476000804ED00E00246511C002309E00D
:103FA000087810B1881A802801DD00207047087851
:103FB0004340491C08782A2802D008780D28EFD100
:103FC0001846F3E7B0EE401ABDEEC10A10EE100A33
:103FD000642190FBF1F000EE900AB8EEE02ADFEDEC
:103FE000082AB0EE410A02EE620AF0EE401A9FED96
:103FF000052A81EE820AB8EEE02A30EE020A704706
:104000000000C8420000704202460AB90020704712
:10401000107FC0F3C00030B119B192ED0C0A81EDF0
:10402000000A0120F3E70020F1E702460AB9002068
:104030007047107FC0F3001030B119B192ED0D0A36
:1040400081ED000A0120F3E70020F1E7F8B504460E
:104050000D4616460020A0600021E1604FF480600C
:1040600001F058FB2061002161612560284600BFF6
:1040700000BF00BF00F10C0252E8002F42F0200107
:1040800000F10C0242E80013002BF3D100BF00BF87
:10409000284600BF00BF00BF00F10C0252E8002F0D
:1040A00042F0100100F10C0242E80013002BF3D1A2
:1040B00000BF00BF00220821304602F04DFB6066C1
:1040C00000220421304602F047FBA0660020E06693
:1040D00000270BE04FF4806001F01CFB00900023F0
:1040E0001A466946A06E02F021FC7F1CB742F1DB44
:1040F000002204F10801A06E02F06AFD0120F8BD63
:104100002DE9F04F2DED028BA3B080460C46D8E987
:1041100000122069FCF7E5F8D8F804106161D8F8BE
:10412000040000287ED000250027A94600BF00BF5C
:10413000FE4A1168D8F80000FCF7F7F80546002D94
:1041400071D0ED1E2878242800D045E1F8A128463A
:10415000FCF7EBF8074607B93EE178788DF80800E0
:10416000B8788DF80900802103A8FCF7D3F8781BF4
:1041700000F1030ABAF1800F00D92DE15246294619
:1041800003A8FCF7E4F803A8FFF706FF019000205E
:1041900000906A46E7A102A8FCF716F9DDE90010D5
:1041A00081426FD1E4A103A8FCF7ECF806464FF07A
:1041B000020B08E1E0A10020FCF7E4F80646ABF1B1
:1041C0000200092872D2DFE800F00534487286AE9A
:1041D000AFC0D9003078302802DB3078392800DDD4
:1041E000E8E0707830383178303901EB810100EB4C
:1041F0004100E077F0783038B178303901EB810157
:1042000000EB4100C1B2202001557079303831797E
:10421000303901EB810100EB4100C1B22120015591
:10422000A08B01E0F9E3D6E020F00200801CA0831F
:10423000C0E03078302802DB3078392800DDB9E082
:104240003046FEF7BDFAB0EE408AF0EE608A51ECDF
:10425000180BFCF7B4FAA062ACE0B8A13046FCF74A
:1042600082F880B9D4ED0A0AB0EE600AFFF7AAFE20
:10427000B1EE400A84ED0C0AA08B20F00800083053
:10428000A08312E0A6E0AEA13046FCF76CF860B95E
:10429000D4ED0A0AB0EE600AFFF794FE84ED0C0A32
:1042A000A08B20F008000830A08383E07FE0307806
:1042B000302802DB3078392800DD7BE03046FEF71D
:1042C0007FFAB0EE408AF0EE608A51EC180BFCF7F2
:1042D00076FAE0626EE09BA13046FCF744F878B9CC
:1042E000D4ED0B0AB0EE600AFFF76CFEB1EE400AA7
:1042F00084ED0D0AA08B20F010001030A08311E097
:1043000091A13046FCF72FF860B9D4ED0B0AB0EE5E
:10431000600AFFF757FE84ED0D0AA08B20F0100015
:104320001030A08346E045E03078302802DB30785A
:10433000392800DD3EE03046FCF708F9A077A08B75
:1043400020F00100401CA08334E03078302802DBEC
:104350003078392800DD2DE03046FEF731FAB0EE36
:10436000408AF0EE608A51EC180BFCF728FAA06343
:10437000A08B20F020002030A0831BE03078302874
:1043800002DB3078392800DD14E03046FEF718FAF9
:10439000B0EE408AF0EE608A51EC180BFCF70FFA91
:1043A000E063A08B20F040004030A08302E04FF09B
:1043B000010900BF00BF0BF1010000F0FF0BB9F1D4
:1043C000000F00D002E0002E7FF4F4AE00BF012009
:1043D000607600BF00BF00BF00BF00BF4FF0000904
:1043E000524A5168D8F80000FBF79FFF0546002DA0
:1043F00074D0ED1E2878242800D076E14CA1284600
:10440000FBF793FF074607B96FE178788DF808004E
:10441000B8788DF80900802103A8FBF77BFF781B93
:1044200000F1030ABAF1800F00D95EE15246294635
:1044300003A8FBF78CFF03A8FFF7AEFD0190002057
:1044400000906A463BA102A8FBF7BEFFDDE9001021
:1044500081426AD138A103A8FBF794FF06464FF0CA
:10446000020B39E134A10020FBF78CFF0646ABF1CB
:10447000020009286AD2DFE800F00532334783974B
:10448000C1DAF5003078302802DB3078392800DDD9
:1044900019E1707830383178303901EB810100EB67
:1044A0004100E077F0783038B178303901EB8101A4
:1044B00000EB4100C1B220200155707930383179CC
:1044C000303901EB810100EB4100C1B221200155DF
:1044D000A08B20F00200801CA083F4E004E1F2E055
:1044E0003078302802DB3078392800DDEBE03046C8
:1044F000FEF766F9B0EE408AF0EE608A51EC180BD8
:10450000FCF75DF9A062DEE00CA13046FBF72BFF63
:1045100010BBD4ED0A0AB0EE600AFFF753FDB1EE0E
:10452000400A84ED0C0AA08B11E0DCE004000020BE
:104530002A000000255800002C2A0000530000002B
:104540004E0000005700000045000000B8E020F0D9
:1045500008000830A08312E0AFF21C013046FBF7E0
:1045600002FF60B9D4ED0A0AB0EE600AFFF72AFD37
:1045700084ED0C0AA08B20F008000830A083A2E094
:104580003078302802DB3078392800DD9BE0304677
:10459000FEF716F9B0EE408AF0EE608A51EC180B87
:1045A000FCF70DF9E0628EE0AFF268013046FBF7F0
:1045B000DAFE78B9D4ED0B0AB0EE600AFFF702FD1F
:1045C000B1EE400A84ED0D0AA08B20F010001030EF
:1045D000A08312E0AFF290013046FBF7C4FE60B951
:1045E000D4ED0B0AB0EE600AFFF7ECFC84ED0D0A87
:1045F000A08B20F010001030A08364E030783028C9
:1046000002DB3078392800DD5DE03046FEF7D8F86F
:10461000B0EE408AF0EE608A51EC180BFCF7CFF850
:104620002064A08B20F080008030A0834BE03078A5
:10463000302802DB3078392800DD44E03046FEF7D0
:10464000BFF8B0EE408AF0EE608A51EC180BFCF730
:10465000B6F86064A08B20F4807000F58070A083B1
:1046600031E0FFE73078302802DB3078392800DD90
:1046700029E0707830383178303901EB810100EB76
:104680004100C1B224200155F0783038B17830397A
:1046900001EB810100EB4100C1B22320015570798B
:1046A00030383179303901EB810100EB4100C1B282
:1046B00022200155A08B20F00400001DA08302E001
:1046C0004FF0010900BF00BF0BF1010000F0FF0B2C
:1046D000B9F1000F00D002E0002E7FF4C3AE00BF9E
:1046E0000120607600BF00BF00BF00BF00BF4FF0D9
:1046F0000009F94A9168D8F80000FBF716FE054654
:10470000DDB3ED1E2878242800D06FE0AFF2E01171
:104710002846FBF70AFE074607B967E078788DF868
:104720000800B8788DF80900802103A8FBF7F2FD96
:10473000781B00F1030ABAF1800F00D956E0524607
:10474000294603A8FBF703FE03A8FFF725FC019009
:10475000002000906A46AFF2242102A8FBF734FE45
:10476000DDE9001081423FD1AFF2342103A8FBF70D
:1047700009FE06464FF0020B30E036E0AFF248216A
:104780000020FBF7FFFD0646BBF1020F1AD130787F
:10479000302802DB3078392800DD16E03046FEF79D
:1047A0000FF8B0EE408AF0EE608A51EC180BFCF77F
:1047B00006F8E06494F8480020F00100401C84F8FA
:1047C000480002E04FF0010900BF00BF0BF10100FB
:1047D00000F0FF0BB9F1000F00D001E0002ECDD1A9
:1047E00000BF0120607600BF00BF00BF00BF00BF58
:1047F0004FF00009B84AD168D8F80000FBF795FDE2
:104800000546DDB3ED1E2878242800D06FE0AFF216
:10481000E0212846FBF789FD074607B967E078786D
:104820008DF80800B8788DF80900802103A8FBF7FF
:1048300071FD781B00F1030ABAF1800F00D956E030
:104840005246294603A8FBF782FD03A8FFF7A4FB05
:104850000190002000906A46AFF2283102A8FBF7D1
:10486000B3FDDDE9001081423FD1AFF2343103A83E
:10487000FBF788FD06464FF0020B30E036E0AFF262
:1048800048310020FBF77EFD0646BBF1020F1AD12E
:104890003078302802DB3078392800DD16E03046E9
:1048A000FDF78EFFB0EE408AF0EE608A51EC180BF7
:1048B000FBF785FF206594F8480020F00200801C7B
:1048C00084F8480002E04FF0010900BF00BF0BF17F
:1048D000010000F0FF0BB9F1000F00D001E0002E45
:1048E000CDD100BF0120607600BF00BF00BF00BF78
:1048F00000BF4FF00009784A1169D8F80000FBF7B3
:1049000014FD0546D5B3ED1E2878242800D08DE08F
:10491000AFF2E4312846FBF708FD074607B985E00A
:1049200078788DF80800B8788DF80900802103A800
:10493000FBF7F0FC781B00F1030ABAF1800F00D9F5
:1049400074E05246294603A8FBF701FD03A8FFF7D0
:1049500023FB83460020019001AAAFF2284102A860
:10496000FBF732FD019858455ED1AFF2344103A800
:10497000FBF708FD0646022000904FE055E0AFF23D
:1049800048410020FBF7FEFC06460098022802D0B2
:10499000032836D11AE03078302802DB3078392805
:1049A00000DD31E03046FDF70BFFB0EE408AF0EE5F
:1049B000608A51EC180BFBF702FFA06594F85400D5
:1049C00020F00100401C84F854001DE030783028AD
:1049D00002DB3078392800DD16E03046FDF7F0FEC6
:1049E000B0EE408AF0EE608A51EC180BFBF7E7FE60
:1049F000E06594F8540020F00200801C84F8540014
:104A000002E04FF0010900BF00BF0098401CC0B297
:104A10000090B9F1000F01D002E0AFE0002EAED15E
:104A200000BF0120607600BF00BF00BF00BF00BF15
:104A30004FF00009284A5169D8F80000FBF775FCCF
:104A40000546DDB3ED1E2878242800D094E0AFF2AF
:104A500020512846FBF769FC074607B98CE07878B7
:104A60008DF80800B8788DF80900802103A8FBF7BD
:104A700051FC781B00F1030ABAF1800F00D97BE0EA
:104A80005246294603A8FBF762FC03A8FFF784FA05
:104A90000190002000906A46AFF2685102A8FBF72F
:104AA00093FCDDE90010814264D1AFF2745103A898
:104AB000FBF768FC06464FF0020B55E05BE0AFF2F7
:104AC00088510020FBF75EFC0646BBF1020F05D0C3
:104AD000BBF1030F3CD115E00400002030783028F2
:104AE00002DB3078392800DD35E03046FDF768FE1E
:104AF000B0EE408AF0EE608A51EC180BFBF75FFED7
:104B0000206628E03078432807D194F8540020F03C
:104B10000400001D84F8540019E03078462816D1AE
:104B200094ED180ADFED180A30EE600AF1EE040A7F
:104B300020EE200AF2EE020A80EE201A84ED181A06
:104B400094F8540020F00400001D84F8540002E0A2
:104B50004FF0010900BF00BF0BF1010000F0FF0B97
:104B6000B9F1000F00D001E0002EA8D100BF012054
:104B7000607600BF00BF00BF00BF00BF23B0BDEC28
:104B8000028BBDE8F08F00000000004270B50546C2
:104B9000FDF710FE10B16FF0050404E0002415B11C
:104BA000284601F0E3FB204670BD000010B5FDF77C
:104BB00001FE10B16FF0050409E00648006820B955
:104BC000012004490860002401E04FF0FF34204632
:104BD00010BD0000DC00002070B5FDF7EBFD10B14A
:104BE0006FF005041FE011480068012819D100BFCB
:104BF000801F0021002804DB0A07130E0C4A1354FF
:104C000006E00A07150E0B4A00F00F031B1FD554D0
:104C100000BF00BF02200549086001F023FC00240A
:104C200001E04FF0FF34204670BD0000DC000020A2
:104C300000E400E018ED00E02DE9FF4780468946DA
:104C4000144600200390FDF7B5FD00284ED1B8F1C1
:104C5000000F4BD0802618258246471E44B320689B
:104C600008B1D4F800A0A06900B1A5692DB1382D14
:104C700003D8207900F0010018B1002004B0BDE88D
:104C8000F087606908B160698608A06840B1E06893
:104C90005C2805D3206918B1606908B1012708E0D4
:104CA000A06830B9E06820B9206910B9002700E099
:104CB0000027012F0CD12169A0684B463246CDE96F
:104CC000005102905146404602F014F903900DE065
:104CD00067B903A8B2B24B465146CDE900504046F1
:104CE00002F0D6F8012801D0002003900398C5E710
:104CF0002DE9F04105460E4616480768164800683B
:104D0000001D01F09AF9681C38B936B112480168E3
:104D1000091D124801F0F8F91AE07C190E480068E4
:104D20004460BC4207D20C480168091D0C48006869
:104D300001F0D0F90CE008480168091D0948006835
:104D400001F0C8F908480068844201D206480460AE
:104D5000BDE8F081A00000208C0000206C0B00203A
:104D60009400002090000020BC00002010B50446F4
:104D700001F0D6F924480068401C23490860234804
:104D8000006840B9214804600846006801280DD138
:104D900000F0FCF90AE01E48006838B91B480068BA
:104DA000C06AE16A884201D818480460194800685E
:104DB000401C184908600846006860641649E06AAB
:104DC0000968884202D91449E06A0860E16A01EB87
:104DD0008101124A02EB8100211D01F095F901F0D9
:104DE000C9F90B48006868B108480068C06AE16A00
:104DF000884207D24FF0805009490860BFF34F8FB7
:104E0000BFF36F8F10BD00009C0000208C000020BD
:104E1000A8000020B8000020A4000020BC0600204C
:104E200004ED00E008B501F07BF912480068E8B92C
:104E3000114801F03FF9114801F03CF90E481049C2
:104E400008600E480F49086000200F4B0F4A1021E0
:104E500000900A2001F0ADFC064908600846006891
:104E600020B10BA10348006801F044FA01F082F977
:104E700008BD0000D0000020800B0020940B002013
:104E8000C8000020CC000020A80B0020F80B002058
:104E9000546D72510000000010B516E001F040F9A9
:104EA0000C48C068C468201D01F0C7F80A480068B3
:104EB000401E0949086009480068401E074908600B
:104EC00001F058F9204600F05FF804480068002817
:104ED000E4D110BD580B00209C0000209800002059
:104EE00070B504460D46206C70B1216CE068014439
:104EF000E160D4E90210884201D32168E1602846CC
:104F0000226CE168FBF7EDF970BD2DE9F041044634
:104F10000F4615464FF00008A66B206C48B9206874
:104F200000282CD1A06802F0FBF880460020A06089
:104F300025E07DB93946226C6068FBF7D2F9216C17
:104F4000606808446060D4E90101884217D3206892
:104F5000606014E03946226CE068FBF7C2F9216C0E
:104F6000E068411AE1602168E068884203D2216C60
:104F7000A068411AE160022D01D106B1761E701CB5
:104F8000A0634046BDE8F08110B5044694F859008E
:104F900030B9206B01F00CF9204601F009F91AE054
:104FA00094F85900012803D1204601F001F912E0DC
:104FB00094F85900022801D1012000E0002050B9E6
:104FC00000BF502080F31188BFF34F8FBFF36F8F66
:104FD00000BF00BFFEE710BD0146084A1268126814
:104FE0000AB9012200E000220A600A6822B9034AD5
:104FF0001268D268106800E000207047C8000020E6
:1050000030B54FF47053174800F007042CB1C01DA1
:1050100020F00700134C041B1B1B0246124C22609D
:105020000024114D6C60D018083820F007000F4C98
:10503000206000240D4D2D686C600C4D2D682C6097
:105040001146441A4C60094C24680C60084D4C68A9
:105050002C60084D4C682C604FF00044064D2C60CD
:1050600030BD000050130020E0000020E8000020C8
:10507000F0000020EC000020FC00002000BFFFF743
:105080000BFF064800680128F9D94FF08050044909
:105090000860BFF34F8FBFF36F8FF0E7BC060020AF
:1050A00004ED00E02DE9F04106460D46174698460E
:1050B000069C0DB9246000E02760E66325640121A9
:1050C000204601F0E7FB84F84C80BDE8F0812DE933
:1050D000F05F82460E4690469B460A9F0C9C4FEA24
:1050E0008801A522206BFBF70EF9A8F10100216BC6
:1050F00001EB800929F0070909F0070008B9012030
:1051000000E0002050B900BF502080F31188BFF3A9
:105110004F8FBFF36F8F00BF00BFFEE786B1002542
:1051200007E0715D04F134004155705D00B902E0A3
:105130006D1C102DF5D300BF00214320015502E066
:10514000002084F83400382F00D33727E762E76463
:1051500000202065201D00F0BAFF04F1180000F0C7
:10516000B6FF2461C7F13800A06164620020606569
:1051700084F858005A465146484600F071FB2060BA
:105180000B9808B10B980460BDE8F09F10B500249F
:1051900007E004EB84010F4A02EB810000F08AFF74
:1051A000641C382CF5D30C4800F084FF0B4800F049
:1051B00081FF0B4800F07EFF0A4800F07BFF0A48A1
:1051C00000F078FF0448094908600448084908606D
:1051D00010BD0000BC0600201C0B0020300B00207E
:1051E000440B0020580B00206C0B00209000002086
:1051F0009400002010B50146164800E000680368DE
:105200008B42FBD30246436813448B4204D143686C
:105210004C682344436001460A464B6813440468C3
:10522000A34211D10C4C03682468A34208D04B68F8
:105230000468646823444B6003681B680B6005E0E6
:10524000054B1B680B6001E003680B60884200D0CF
:10525000016010BDE0000020E80000202DE9F041D1
:1052600004460D4616461F464FF00008656024614F
:10527000B5420CD8F01BA169884202D34FF0010857
:1052800011E0211D0948006800F024FF0BE0BE4238
:1052900004D2BD4202D34FF0010804E0211D0448AE
:1052A000006800F017FF4046BDE8F081CC00002008
:1052B000C800002070B5054600F032FFA86B08B9A1
:1052C000012400E0002400F055FF204670BD70B5B9
:1052D000054600F025FFA86BE96B884201D1012447
:1052E00000E0002400F046FF204670BDF8B50546FA
:1052F0000F461A480068C068C468201D00F09DFE73
:1053000094F8280000F00400E8B1A06941192B4688
:105310003A462046FFF7A2FFD8B1002003462A46AE
:1053200001460090204602F057F8064656B900BFE5
:10533000502080F31188BFF34F8FBFF36F8F00BFF2
:1053400000BFFEE705E094F8280020F0010084F893
:1053500028002046216A8847F8BD0000C8000020C8
:10536000F0B587B0A0E00398002811DA04AE56B972
:1053700000BF502080F31188BFF34F8FBFF36F8FB2
:1053800000BF00BFFEE7D6E90020B168904700BF2C
:1053900003980028E6DB059C606908B9012000E05D
:1053A000002010B9201D00F048FE02A800F0DEF831
:1053B000054603980A2875D2DFE800F00905073989
:1053C000416306083A4200BF00BF00BF00BF94F827
:1053D000280040F0010084F828000498A269811890
:1053E00003462A462046FFF739FFF8B12046216AD6
:1053F000884794F8280000F00400B8B1002000901D
:105400000498A169421800231946204601F0E4FFE0
:10541000074657B900BF502080F31188BFF34F8F64
:10542000BFF36F8F00BF00BFFEE700BF3BE000BFD0
:1054300094F8280020F0010084F8280033E000BF31
:1054400094F8280040F0010084F828000498A06136
:10545000A06908B1012000E0002050B900BF502031
:1054600080F31188BFF34F8FBFF36F8F00BF00BF72
:10547000FEE7A06941192B462A462046FFF7EEFEBB
:1054800011E094F8280000F0020018B9204600F05E
:105490008FFE05E094F8280020F0010084F8280031
:1054A00001E0FFE700BF00BF002203A90448006835
:1054B00001F08EFB00287FF456AF07B0F0BD00006E
:1054C000D0000020F8B505460C4601F027F86846E4
:1054D00000F04CF80646009820BB44B9B54206D807
:1054E00001F0BCFE31462846FFF700FF1CE03CB14E
:1054F0000E480068006808B9012000E0002004465A
:10550000A91B22460A48006800F00AFF01F0A6FE27
:1055100050B94FF0805007490860BFF34F8FBFF379
:105520006F8F01E001F09AFEF8BD0000CC00002072
:10553000D000002004ED00E00A490968096809B9B3
:10554000012100E0002121B14FF0FF31064A116036
:1055500006E004490968C968C868034A41681160DF
:105560007047000090000020BC00002070B5044689
:1055700001F02EFD054607480068854204D200F080
:105580000BF80120206001E0002020600148056048
:10559000284670BDD80000202DE9F84334E02548A6
:1055A0000068C068056823480068C068C468201D9A
:1055B00000F043FD2046216A884794F8280000F057
:1055C000040008B3A0694619AE4207D96660246199
:1055D000211D1848006800F07DFD15E000200346FD
:1055E0002A4601460090204601F0F6FE074657B9CC
:1055F00000BF502080F31188BFF34F8FBFF36F8F30
:1056000000BF00BFFEE700BF0A480068006808B995
:10561000012000E000200028C1D00648D0F800801A
:1056200005480068034908600348C0F80080BDE8E9
:10563000F8830000C8000020CC0000200E4800685D
:10564000401C08B9012000E0002050B900BF5020E4
:1056500080F31188BFF34F8FBFF36F8F00BF00BF80
:10566000FEE700BF502080F31188BFF34F8FBFF3D8
:105670006F8F00BF00BFFEE70001002008B500BF2C
:105680006846FFF7A9FC044620460099FFF71AFF79
:10569000FFF766FEF4E770B5044600F041FD94F9AB
:1056A000455010E0606A08B9012000E0002038B9D8
:1056B00004F1240001F086FD18B100F091FE00E035
:1056C00003E0681E45B2002DECDC00BFFF2084F82B
:1056D000450000F04FFD00F023FD94F9445010E028
:1056E000206908B9012000E0002048B904F1100049
:1056F00001F068FD08B100F073FE681E45B200E0DD
:1057000001E0002DECDC00BFFF2084F8440000F035
:1057100031FD70BD2DE9F04104464FF0000800F066
:10572000FDFE4948006808B9FFF76AFC4748006871
:105730002040002870D1D4B1083404F00700B0B183
:1057400004F00700C0F10800044404F0070008B9A1
:10575000012000E0002050B900BF502080F31188E4
:10576000BFF34F8FBFF36F8F00BF00BFFEE7002C6A
:1057700052D03748006884424ED8364E30460568CD
:1057800001E02E462D686868A04202D228680028F1
:10579000F7D12D48006885423ED0306800F10808F6
:1057A000286830606868001B102819D92F1907F085
:1057B000070008B9012000E0002050B900BF5020C8
:1057C00080F31188BFF34F8FBFF36F8F00BF00BF0F
:1057D000FEE76868001B78606C603846FFF70AFDDA
:1057E0001B4968680968081A194908600846006872
:1057F00019490968884203D21548006816490860AB
:1058000012496868096808436860002028601348E6
:105810000068401C1149086001F020FD08F00700F5
:1058200008B9012000E0002050B900BF502080F3EB
:105830001188BFF34F8FBFF36F8F00BF00BFFEE72C
:105840004046BDE8F0810000E8000020FC00002098
:10585000EC000020E0000020F0000020F400002018
:10586000001F4FF080730360001F21F001030360ED
:10587000001F054B036014380260001F6FF0020325
:1058800003602038704700003D56000838B50446D4
:10589000002000906A460D21204600F0A3F89DF8F4
:1058A0000000FF2801D1012038BD0020FCE70000E6
:1058B000F8B506460C4630212046FAF72BFD266047
:1058C00000212068FCF7EAF82068016801F0010176
:1058D00031B92068016841F00101016000BF00BFDB
:1058E0002068FFF7D3FF012805D01CA0FCF7F0FECD
:1058F0004FF0FF30F8BD80220A21206800F0E0F868
:105900006420FFF743F901220B21206800F0D8F84A
:10591000002509252A460921206800F0D1F86A46A9
:105920000921206800F05EF8A84202D012A0FCF71E
:10593000CFFE40252A460A21206800F0C1F86A46B9
:105940000A21206800F04EF8A84202D015A0FCF70A
:10595000BFFE1FA0FCF7BCFE0020CBE7716D6335D6
:105960003838336C2069326320696E69742066614F
:10597000696C65640D0A0000777269746520716D49
:1059800063353838336C20636F6E74726F6C3120FE
:105990007265676973746572206661696C65640D10
:1059A0000A000000777269746520716D63353838BC
:1059B000336C20636F6E74726F6C3220726567692E
:1059C00073746572206661696C65640D0A0000007D
:1059D000696E697420716D63353838336C3A6F6B5A
:1059E0000D0A00002DE9F04105460F461446002639
:1059F0000AE0761C46F2A810864205DD2AA0FCF7D4
:105A000067FE0020BDE8F0812846FCF7F6F8002884
:105A1000EFD12846FCF7AEF800BF2846FCF7F7F8B0
:105A20000028FAD01A212846FCF7FBF800BF2846C8
:105A3000FCF7DEF80028FAD02846FCF735F800BF5E
:105A40002846FCF7E9F80028FAD039462846FCF742
:105A5000E8F800BF2846FCF7DFF80028FAD028460F
:105A6000FCF788F800BF2846FCF7D1F80028FAD0E8
:105A70001B212846FCF7D5F800BF2846FCF7B8F8EC
:105A80000028FAD02846FCF70FF800BF2846FCF79C
:105A9000B9F80028FAD000BF2869C0B220702846A3
:105AA000FCF76DF82078ADE7716D63353838336CED
:105AB0002069326320697320627573790D0A0000D2
:105AC0002DE9F04106460F46144600250AE06D1CFC
:105AD00046F2A810854205DD1CA0FCF7F9FD002068
