:020000040800F2
:10000000785000205D020008D1210008171900086F
:10001000CD210008D9130008C32500080000000006
:100020000000000000000000000000009D0100082A
:10003000DD13000800000000F90100083323000868
:1000400077020008770200087702000877020008AC
:10005000770200087702000877020008770200089C
:10006000770200087702000877020008770200088C
:10007000770200087702000877020008770200087C
:10008000770200087702000877020008770200086C
:10009000770200087702000877020008770200085C
:1000A0007702000899240008770200087702000808
:1000B000770200087702000877020008770200083C
:1000C000770200087702000877020008770200082C
:1000D0007702000877020008A1250008B125000872
:1000E000770200087702000877020008770200080C
:1000F00077020008770200087702000877020008FC
:1001000077020008770200087702000877020008EB
:10011000912500087702000877020008770200089E
:1001200077020008770200087702000877020008CB
:1001300077020008000000000000000077020008BD
:1001400077020008770200087702000877020008AB
:10015000770200087702000877020008C12500082E
:10016000770200087702000877020008770200088B
:10017000770200087702000800000000000000007D
:100180007702000877020008DFF80CD000F008FDC5
:100190000048004795360008785000202C4B19681D
:1001A0000868B0E8F04F80F30988BFF36F8F4FF015
:1001B000000080F3118870470000000008480068C4
:1001C000006880F308884FF0000080F3148862B65E
:1001D00061B6BFF34F8FBFF36F8F00DF00BF00BF6B
:1001E00008ED00E0DFF80C00016841F470010160E7
:1001F000704700BF88ED00E0EFF30980BFF36F8F19
:10020000134B1A681EF0100F08BF20ED108A20E96A
:10021000F04F106009B44FF0500080F31188BFF325
:100220004F8FBFF36F8F05F0F7F94FF0000080F3A9
:10023000118809BC19680868B0E8F04F1EF0100F6B
:1002400008BFB0EC108A80F30988BFF36F8F704746
:1002500040000020EFF3058070470000064880470B
:1002600006480047FEE7FEE7FEE7FEE7FEE7FEE79B
:10027000FEE7FEE7FEE7FEE78524000889010008A7
:100280002DE9F05F0546002092469B4688460646CB
:10029000814640241BE0284641464746224600F05E
:1002A000B6F953465A46C01A914110D31146184622
:1002B000224600F09DF92D1A67EB01084F462246B1
:1002C0000120002100F094F917EB00094E41201E97
:1002D000A4F10104DFDC484631462A464346BDE826
:1002E000F09F40EA01039B0703D009E008C9121FF1
:1002F00008C0042AFAD203E011F8013B00F8013BE0
:10030000521EF9D27047D2B201E000F8012B491E0B
:10031000FBD270470022F6E710B513460A460446A2
:100320001946FFF7F0FF204610BD30B505462A46B6
:100330000B4612F8010B13F8014B08B1A042F8D09C
:100340001CB1002802D06D1CF1E7284630BD10B565
:10035000044604E00B7800F8013B03B1491C521E2F
:10036000F8D2204610BD10B5002200E0521C835C7C
:100370008C5CA34201D1002BF8D1D8B2E1B2401A73
:1003800010BD000070B50F4D00B92868002412E0C0
:100390000A4602E09E4203D0521C1378002BF9D18A
:1003A000DAB2224305D02BB124B1002100F8011BA1
:1003B00004E00446401C0678002EE9D1286020465F
:1003C00070BD0000C00000200FB400B58DB010A9B2
:1003D00009900B9000914FF0FF300A9000200C9094
:1003E00005480690054807906A4609A80F9900F04D
:1003F00033F90DB05DF814FB75060008930600088C
:100400002DE9FF5F1D464FF0FF3BD5E901469146C0
:100410005F464FF00008A9697F1C01988847296A48
:10042000824688470028F6D1BAF1FF3F0CD024F469
:10043000C064002E19DD600614D5BAF12B0F09D067
:10044000BAF12D0F0ED103E0584604B0BDE8F09F7D
:1004500044F48064A9697F1C01988847761E82460F
:10046000002E02DDBAF1300F03D0B9F1000F26D013
:1004700032E0A969761E44F400747F1C0198884715
:100480008246002E05DDBAF1780F06D0BAF1580F7A
:1004900003D0B9F1000F10D01EE0B9F1000F02D067
:1004A000B9F1100F18D1A969761E24F400747F1CCD
:1004B000019888478246102002E0082000E00A20C8
:1004C000814609E008FB0908A969761E44F4007416
:1004D0007F1C019888478246002E05DD494650461C
:1004E00000F0A5F80028EDDAE96901988847A00531
:1004F00002D46FF00100A8E7E00725D1600613D50C
:10050000600502D5C8F1000000E0404629680A1DD8
:100510002A600968220501D5087015E0220701D577
:10052000088011E008600FE02868011D296000685C
:10053000210502D580F8008006E0210702D5A0F849
:10054000008001E0C0F8008038467EE770B50646BE
:1005500002F0A8F8046805460A220021304600F09F
:10056000F7F82C6070BD00F0004230F000400AD077
:10057000C10D01F56071C0F3160042EA0151C208D5
:1005800040071143704700200146704701F00043C7
:1005900030B421F0004150EA010206D00A0DA2F564
:1005A0006072C1F31301002A02DC30BC00207047E6
:1005B000440F44EAC104C100E01830BC00EBC25053
:1005C00000F0FEB830B50B46014600202022012481
:1005D00009E021FA02F59D4205D303FA02F5491B11
:1005E00004FA02F52844151EA2F10102F1DC30BD27
:1005F000202A04DB203A00FA02F1002070479140E3
:10060000C2F1200320FA03F3194390407047202AD7
:1006100004DB203A21FA02F00021704721FA02F3AC
:10062000D040C2F1200291400843194670473A2851
:1006300000D2303820F02002412A01D3A2F1370045
:10064000884201D34FF0FF30704700000268114428
:100650001378016018467047D1600449516104491C
:10066000116200211161114600F0CCBA4D0600085C
:10067000F10B0008426842B1016811F8013B23B157
:10068000521EC0E90012184670470121C160881E41
:10069000704742685AB1C368016843B983688B42A6
:1006A00005D0491E521CC0E90012002070474FF0CF
:1006B000FF3070470FB4002300B589B00CA900913A
:1006C0000B996FF00042CB601E4B06931E4B0793B5
:1006D0000423CDE901321D4A089202466B460020F0
:1006E00000F0A6FC09B05DF814FB70B586B00646B4
:1006F0004FF0FF300091CDE90101002015460C4676
:1007000004903246694604A8FFF7D4FF03460498D4
:10071000211825B108B10A4600E022462A600028C7
:100720000DD0002B02DD0098884208D0081B0094F1
:10073000CDE901043246694604A8FFF7BBFF06B0C5
:1007400070BD00007506000893060008F10B000854
:100750002DE9F04791460F4680460446002614F8DE
:10076000015B2DB100F040FA0068405DC007F6D192
:100770002B2D02D02D2D18D0641E4A463946204616
:1007800000F072FD27B13968A14201D1C7F800809D
:1007900071054FF002040BD54042002803DD01F043
:1007A00081FF0460A007BDE8F08746F48066E4E7B7
:1007B0000028F8DA01F076FF04606FF00040F2E7FD
:1007C0000029A8BF7047401C490008BF20F0010065
:1007D000704710B4B0FA80FC00FA0CF050EA010443
:1007E00004BF10BC704749B1CCF1200421FA04F4D5
:1007F00011FA0CF118BF012121430843A3EB0C01AE
:10080000CB1D4FEA00614FEA102042BF002010BC10
:10081000704700EBC35010440029A4BF10BC7047C0
:10082000401C490008BF20F0010010BC70472DE9B2
:10083000FE4F804681EA0300C00F0C46009021F075
:10084000004123F00045B8EB0200A94105D2404623
:10085000214690461C460B46024623F000401043BA
:1008600047D0270DC7F30A00C3F30A510290401A7C
:10087000019040286BDAC3F3130040F4801B00980A
:10088000924620B10023D2EB030A63EB0B0B0198D5
:100890005946C0F140025046FFF7AAFE06460D46F3
:1008A00050465946019A00F08DF910EB080061415D
:1008B000002487EA115284EAE7731A4340D0009A71
:1008C00062B3019A012A4FEA075215DC001B61EB63
:1008D00002014FF0004202EA0752CDE90042001C3B
:1008E00041F5801132462B4600F01CFD03B0BDE8F7
:1008F000F08F40462146F9E7001B61EB0201001C26
:1009000041F5801300185B412018A2F5001747EB52
:10091000030140EAD570B6196D4111E06D084FEA48
:10092000360645EAC0754FEA0752001B61EB02012B
:10093000001C41F5801149084FEA3000001951416F
:1009400032462B4603B0BDE8F04F00F0DCBC009807
:10095000012240000023D0EB020263EBE073009819
:1009600021464FEAE074B8EB000061EB0401E9E7CF
:1009700083F000435BE781F0004158E72DE9FE4F2B
:1009800081EA030404F0004421F0004100944FF098
:10099000000B23F0004350EA01045ED052EA030446
:1009A0005BD0C3F30A54C1F30A552C44A4F2F334C8
:1009B0000194A0FB0254C1F3130141F48011C3F36D
:1009C000130343F4801301FB024400FB034E840A2B
:1009D000970A44EA815447EA8357A4FB07680295C3
:1009E0008D0A05FB07854FEA932C04FB0C54270561
:1009F000029D4FEA065847EA1637B5EB08056EEB3D
:100A0000070C870E920E47EA811742EA8312A7FB72
:100A10000201B6EB0B0164EB00042B0D43EA0C332F
:100A20005E1844EB1C50DA465146E7FB0201C5F361
:100A300013044FEA0B3343EA14534FEA0432019C88
:100A400043EA0603A4F10C040294009CCDE900B42F
:100A500000F068FC03B0BDE8F08F00200146F9E724
:100A60002DE9F04D81EA030404F0004B21F000452C
:100A700014464FF0000A23F0004150EA050220D04E
:100A800054EA01021DD0C5F30A570246C5F3130309
:100A9000C1F31300C1F30A5640F4801543F48013E8
:100AA000A7EB0608101BD64608F2FD3873EB0500CD
:100AB00002D308F1010801E092185B41B8F1000F80
:100AC00003DA00200146BDE8F08D00204FF48011CC
:100AD000064684460EE0171B73EB050705D3121B71
:100AE00063EB050306434CEA010C49084FEA30006A
:100AF00092185B4150EA0107EDD152EA030012D08F
:100B000082EA040083EA0501084305D0101BAB41CB
:100B100006D20122002306E000224FF0004302E04B
:100B20006FF0010253101AEB06004CEB085110EB6A
:100B30000A0041EB0B01BDE8F04D00F0E4BBC1F34E
:100B40000A52C1F3130140F2FF3341F480119A427B
:100B500002DA00200146704740F233439A42A2F283
:100B6000334202DC5242FFF752BDFFF741BD0000A5
:100B700030B5041E71F1000404DB4FF00044404224
:100B800064EB0101141E73F1000405DB1C464FF0F9
:100B90000043524263EB0403994208BF904230BDC8
:100BA000064C074D06E0E06840F0010394E80700BA
:100BB00098471034AC42F6D3FFF7EAFA046700080E
:100BC00024670008202A06DBCB17203A41FA02F0FE
:100BD00043EAE07306E041FA02F3D040C2F120029A
:100BE000914008431946704700487047B8660008AE
:100BF00010B50446FFF7F8FF0068005D00F0010043
:100C000010BD00002DE9F34F8BB04FF0000801F14B
:100C10000C000C464FF0010B46460DF1080A0190FE
:100C20006269012101989047051E2DD0252D2CD0F9
:100C3000216A8847C0B16269012101989047216A01
:100C400088470028F7D1411E62690198904700E06B
:100C5000761CA1690B988847216A88470028F7D13C
:100C6000E1690B988847DBE7A1690B98884707463D
:100C7000A84201D1761CD3E7E1690B9888477F1C15
:100C800002D1B8F1000F6FD046E1002762693D46FE
:100C90003946019890472A2804D1626901210198B8
:100CA00090470125DFF884926269012101989047FD
:100CB000A0F130010A290AD24F45E5DC07EB870194
:100CC00000EB4107303FDFD445F01005ECE7E906C3
:100CD00001D46FF000476C280AD04C2814D0682843
:100CE00015D06A280DD074281CD07A281AD01DE09F
:100CF00062690121019890476C2802D045F00405F3
:100D000014E045F002050DE045F020050AE06269B7
:100D1000012101989047682802D045F0080505E0B8
:100D200045F400656269012101989047C4E90157C3
:100D300065283DD019DC58287AD00CDC452837D0FE
:100D400004DC252826D0412831D131E046282FD097
:100D500047282CD12CE05B2877D0612828D0632845
:100D60007CD0642823D15AE0D0E06F2848D008DC3A
:100D700066281DD067281BD0692821D06E2816D17F
:100D800027E0702845D0732868D0752847D0782888
:100D90000DD14DE0A1690B988847054625283FF401
:100DA00069AFE1690B9888476D1C3FF46AAFB3E007
:100DB00023466A466FF001000B9900F039F99EE076
:100DC00045F040006060A80723464FF0000236D48B
:100DD0003EE0E8077FF447AF2068011D216000680E
:100DE000290501D506701BE7290701D5068017E7FD
:100DF000A90703D5F117C0E9006111E706600FE705
:100E000045F040006060A80723464FF0080216D462
:100E10001EE040F60E0125EA0100606016E045F094
:100E200040006060A80723464FF00A0207D40FE095
:100E300045F040006060A80708D5234610226FF0F7
:100E400001000B99AFF3008059E007E02346102220
:100E50006FF001000B99FFF7D3FA50E04FF0000953
:100E60004F464B46632802D05B2806D040E0E80698
:100E700001D40120A06001273AE0626901210198B4
:100E800090475E2805D14FF00109626949460198F3
:100E90009047216939B900210A46534643F8212079
:100EA000491C0829FADBB0B3216969B9C11700EB05
:100EB000D16253110AEB830122F01F02821A012032
:100EC0000B68904003430B606269012101989047D1
:100ED0005D28E8D1B9F1000F09D00020514651F842
:100EE0002020D24341F82020401C0828F7DB02AB29
:100EF000224600976FF001000B99AFF300800028A5
:100F00000CDA401C08D1BBF1000F05D04FF0FF30C8
:100F10000DB0BDE8F08FFFE74046F9E7E90701D1E2
:100F200008F1010806444FF0000B79E6CCCCCC0C5C
:100F30002DE9FF4F087881B09946FF2805D0491C5C
:100F40002D2804D00024002308E000230BE0012416
:100F5000F9E703EB830300EB4303491C0878FF2800
:100F6000F7D104B15B4200200090147801462D2C8B
:100F700001D02B2C04D1521C2D2C12D00024009413
:100F800000251678FF2E0ED00A24A0FB04C801FB12
:100F90000481002700FB0711521C16EB0C0069416D
:100FA000EFE70124EBE7994450EA01020ED0002458
:100FB000AA4D2646DFF8A88200F002FA82468B4648
:100FC000B9F1000009DAC9F100071BE0019800211E
:100FD000C0E9001105B0BDE8F08F074612E0F80740
:100FE00007D022462B4630464146FFF7C7FC06464F
:100FF000884622462B4610461946FFF7BFFC04469A
:101000000D467F10002FEAD1B9F1000F324643465A
:101010005046594602DAFFF723FD01E0FFF7AEFC28
:10102000009A0AB181F00041019AC2E90001D1E7BA
:101030002DE9FF4F1F468DB0D7E901464FF0FF382D
:101040002E2045464FF000090B90B9696D1C0E9893
:101050008847396A824688470028F6D1BAF1FF3FAF
:101060000AD024F4D064002E11DDBAF12B0F08D081
:10107000BAF12D0F0BD102E0404611B0ABE744F4BA
:101080008064B9696D1C0E9888478246761E694651
:10109000600501D52D2000E02B208DF8000001F126
:1010A000010B0DF1200809E0B9696D1C0E98884705
:1010B00082460F9844F40074761E0560002E02DD0F
:1010C000BAF1300FF0D00B998A453ED144F080043C
:1010D00006E00F99681CA9F1010944F40074086046
:1010E000B9696D1C761E0E98884782463028F0D06C
:1010F0002BE00B998A4505D1200603D444F08004E7
:10110000761E18E0504601F0C1FB08B30DF1130143
:10111000761E44F400748B4508D2AAF130000BF817
:10112000010B200607D5A9F1010003E0200602D437
:1011300009F101008146A00502D50F99681C0860DD
:10114000B9696D1C0E9888478246002ED1DC53E0A9
:10115000002E51DDBAF1650F02D0BAF1450F4BD127
:10116000A00549D5B9696D1C24F44074761E0E980B
:1011700088478246002E0CDD2B2804D0BAF12D0FB3
:1011800007D144F48074B9696D1C0E988847824673
:10119000761EE00501D52D2100E02B2108F8011B6A
:1011A000CDF82C8021E00DF12901761E44F4007465
:1011B00088450CD2AAF1300010F0FF0088F800003A
:1011C00002D10B99884509D908F1010806E0E0052C
:1011D00001D5244801E042F20F708146B9696D1CC7
:1011E0000E98884782460F980560002E04DD504611
:1011F00001F04CFB0028D6D1F9690E988847FF20F2
:101200008BF8000088F800000020069007904B46FD
:101210006A4608A906A8FFF78BFEA00502D46FF066
:1012200001002AE714F0240F0AD0E00714D1DDE909
:1012300006123868031D3B600068C0E900120BE02D
:10124000DDE90601FFF7A2F90146E00704D138689D
:10125000021D3A600068016028460EE70000244045
:101260000000F03FF1D8FFFF2DE9F05F82460078E3
:10127000002715468B460AF10104B946302801D0F3
:101280009DB113E014F8010B0127782803D05828EA
:1012900001D045B10AE00DB1102D07D1002710256E
:1012A00014F8010B02E0082500E00A250026B046EC
:1012B0000EE005FB080005FB06F1012701EB1046D7
:1012C0001FFA80F8B6F5803F00D3B94614F8010B39
:1012D0002946FFF7ACF90028EBDABBF1000F05D087
:1012E0000FB1641E00E05446CBF80040B9F1000F86
:1012F00006D001F0D7F902210160C81EBDE8F09FB9
:1013000048EA0640FAE710B5141E73F1000408DA43
:10131000401C41F1000192185B411A4301D120F0B9
:10132000010010BD2DE9F04D92469B4611B1B1FA76
:1013300081F202E0B0FA80F220329046FFF758F9CD
:1013400004460F4640EA0A0041EA0B0153465A465A
:10135000084313D0114653EA010019D0C8F14002E6
:101360005046FFF754F905460E4650465946424648
:10137000FFF73EF9084305D0012004E02046394636
:10138000BDE8F08D0020054346EAE0762C43374364
:101390000A986305E40AA0EB08000022FD0A44EA6B
:1013A00047540A3002D500200146E9E7010510192B
:1013B0006941DDE9084500196941BDE8F04DA2E742
:1013C0000EB540F2334202920022CDE900221346CC
:1013D000FFF7A8FF03B000BD00BFFEE7704772B67D
:1013E00000BFFEE7014800687047000030000020A1
:1013F00003480068034909780844014908607047B8
:10140000300000203800002010B50D48006840F47E
:1014100000700B4908600846006840F4806008606E
:101420000846006840F480700860032000F0D6F899
:101430000F2000F007F800F055F8002010BD000064
:10144000003C0240F0B587B004460026002700BFEC
:10145000002000901E48006840F001001C49086010
:101460000846006800F00100009000BF00BF01A91D
:1014700002A800F0C7F800F0EDF846001548B6FBEA
:10148000F0F0471E14481549086040F2E731134850
:10149000C1604760002101618160816100F0ECF86A
:1014A000054695B90D4800F01BF905466DB91920A0
:1014B00000F042F8102C07D200222146192000F03B
:1014C0004FF80748046000E00125284607B0F0BD4A
:1014D0004438024040420F00000001405C030020FD
:1014E0003400002008B500BF0020009011480068BB
:1014F00040F480400F4908600846006800F48040CE
:10150000009000BF00BF00BF00200090081F0068CF
:1015100040F08050091F08600846006800F08050C5
:10152000009000BF00BF00220F21901E00F018F8AD
:1015300008BD0000443802400146084600280DDB83
:1015400000BF00BF00F01F0301229A4043099B0027
:1015500003F1E023C3F8002100BF00BF00BF7047C4
:101560002DE9F05F80460D461646002701F06AF827
:10157000074639462A46334601F00700C0F1070AFC
:10158000BAF1040F02D94FF0040A01E0C0F1070AD2
:10159000D14600F1040ABAF1070F02D24FF0000A57
:1015A00001E0A0F1030AD4464FF0010A0AFA09FA51
:1015B000AAF1010A0AEA020A0AFA0CFA4FF0010B30
:1015C0000BFA0CFBABF1010B0BEA030B4AEA0B0421
:1015D0002146404601F052F8BDE8F09F00BF00F000
:1015E0000702064B19684FF6FF031940044B0B43E3
:1015F00043EA0221014B196000BF70470CED00E087
:101600000000FA050F2202600D4A126802F0030280
:1016100042600B4A126802F0F0028260084A1268C7
:1016200002F4E052C260064A126802F46042D20834
:101630000261044A126802F007020A607047000063
:1016400008380240003C0240014800687047000032
:101650003C00002000B5FFF7F7FF04490968C1F31B
:101660004231034A515CC84000BD000008380240C6
:101670002C6600087047704710B504460CB901206D
:1016800010BD94F83D0028B9002084F83C002046A5
:1016900000F025F8022084F83D00211D206800F0AC
:1016A00003FF012084F8460000BF84F83E000121BA
:1016B0003F200155402001554120015500BF00BF8A
:1016C000012084F842004320015544200155452063
:1016D000015500BF012084F83D000020D0E770478D
:1016E000014691F83D00012801D0012070470220F9
:1016F00081F83D000868C06840F001000B68D860C0
:101700001A4B086898421BD00868B0F1804F17D078
:10171000174B0868984213D0164B086898420FD0B0
:10172000154B086898420BD0144B0868984207D0B4
:10173000134B0868984203D0124B086898420CD1AA
:101740000868806800F00702062A0CD00868006864
:1017500040F001000B68186005E00868006840F080
:1017600001000B6818600020C0E700000000014085
:101770000004004000080040000C0040000401404C
:101780000040014000180040704770B504462068D2
:10179000C5682068066906F00200022819D105F024
:1017A0000200022815D1401F21680861012020771E
:1017B0002068806900F0030018B12046FFF7E4FFBD
:1017C00005E0204600F097F8204600F095F800204C
:1017D000207706F00400042819D105F0040004283D
:1017E00015D1C043216808610220207720688069F4
:1017F00000F4407018B12046FFF7C6FF05E0204610
:1018000000F079F8204600F077F80020207706F005
:101810000800082819D105F00800082815D1C04390
:1018200021680861042020772068C06900F0030067
:1018300018B12046FFF7A8FF05E0204600F05BF84E
:10184000204600F059F80020207706F010001028FC
:1018500019D105F01000102815D1C0432168086186
:10186000082020772068C06900F4407018B1204635
:10187000FFF78AFF05E0204600F03DF8204600F023
:101880003BF80020207706F0010048B105F0010088
:1018900030B16FF0010021680861204600F02EF899
:1018A00006F08000802809D105F08000802805D14D
:1018B000C043216808612046FFF7DCFE06F04000C7
:1018C000402809D105F04000402805D1C0432168D7
:1018D0000861204600F01EF806F02000202809D1FB
:1018E00005F02000202805D1C0432168086120466A
:1018F000FFF7C1FE70BD70477047000010B5044689
:1019000003492068884201D1FFF772FD10BD000035
:1019100000000140704700BFFEE7000008B5054920
:1019200009680143034A11601146096801400091AA
:1019300000BF08BD3038024008B5054909680143B9
:10194000034A1160114609680140009100BF08BDBB
:1019500040380240F0B502460B46002400211868CA
:1019600090FAA0F0B0FA80F48AE00125A54018684A
:1019700000EA050100297DD05868012802D0586886
:1019800002281CD19868956891FAA1F6B6FA86F6F5
:1019900077000326BE40B54391FAA1F6B6FA86F663
:1019A000760000FA06F63543956000BFD8685568A2
:1019B0008D4301FB00F63543556000BF00BF186939
:1019C000D56891FAA1F6B6FA86F677000326BE40EE
:1019D000B54391FAA1F6B6FA86F6760000FA06F655
:1019E0003543D56000BF5868022831D191FAA1F083
:1019F000B0FA80F0082814D25869156A91FAA1F655
:101A0000B6FA86F6B7000F26BE40B54391FAA1F6A6
:101A1000B6FA86F6B60000FA06F63543156200BF40
:101A200016E05869556A0E0A96FAA6F6B6FA86F6D0
:101A3000B7000F26BE40B5430E0A96FAA6F6B6FAD0
:101A400086F6B60000FA06F63543556200BF00BFC1
:101A50005868156891FAA1F6B6FA86F6770003265B
:101A6000BE40B54391FAA1F6B6FA86F6760000FAC2
:101A700006F600E003E03543156000BF00BF641CBC
:101A80001868E04000287FF470AFF0BDF0B5002486
:101A900000252B4EB1FBF6F4466826F03F062643A0
:101AA0004660284EB24201D8661C07E04FF4967695
:101AB00066434FF47A77B6FBF7F6761C076A27F091
:101AC0003F073E4306621F4EB24224D96BB902EB78
:101AD0004206B1FBF6F6C6F30B060EB9012615E079
:101AE00002EB4206B1FBF6F610E002EBC20606EB93
:101AF0000216B1FBF6F6C6F30B060EB9012605E099
:101B000002EBC20606EB0216B1FBF6F646F40046FF
:101B100046EA03050CE05600B1FBF6F6C6F30B06E9
:101B2000042E01D2042602E05600B1FBF6F635463B
:101B3000C6694CF6FF77BE432E43C661F0BD000078
:101B400040420F00A08601007FB504460D4600BF4D
:101B5000206820F00100206000BF684600F028F8EF
:101B6000D5E9012320460299FFF790FF6969E868EB
:101B7000A26848F2FF339A4340EA01031A43A26085
:101B800000BF2868216821F01A010143216000BFCD
:101B900000BF206840F00100206000BF2869216874
:101BA00021F480610143216000BF002004B070BDBA
:101BB00010B5044600F062FB2060206800F02AFBAC
:101BC0006060606800F036FBA060606800F044FB75
:101BD000E06010BD02480068C0F388107047000044
:101BE0000438024001490860704700003C000020B2
:101BF000016921F490410161416921F02A014161AB
:101C00007047C16841F40051C16070472DE9FF4140
:101C100004460D4601270026204600F063F8002800
:101C200045D1E9686868084329690843A9690843F8
:101C3000E16849F20C6291430843E060A8682169B9
:101C400021F440510143216100BF6869616921F4B9
:101C500040710143616100BF6846FFF7A9FF164864
:101C6000844201D1039E17E01448844201D1029EB0
:101C700012E01348844201D1029E0DE011488442D3
:101C800001D1039E08E01048844201D1029E03E086
:101C90000E48844200D1029E4EB1286838B1002718
:101CA000314620462B68AA6900F021F800BF38466B
:101CB00004B0BDE8F0810000001001400044004085
:101CC0000048004000140140004C0040005000401B
:101CD00001460868C0F38010704701460868C0F3E9
:101CE000801070470146C868C0F3403070472DE946
:101CF000FC5F06460C4691461D46B9F5004F68D17B
:101D00000220A0FB057003461920A4FB00A0014699
:101D10003A465046FEF7B4FA6421B0FBF1F04FEAC0
:101D2000001A0220A0FB05710B461920A4FB00B18C
:101D30003A465846FEF7A4FA83460220A0FB0570F7
:101D400003461920A4FB00013A46CDE90001FEF745
:101D500097FA6421B0FBF1F000EBC00101EB001039
:101D6000ABEB8000322101EBC0006421B0FBF1F04D
:101D700000F0F8000AEB400A0220A0FB05700346C1
:101D80001920A4FB00B13A465846FEF779FA83467B
:101D90000220A0FB057003461920A4FB00013A466F
:101DA000CDE90001FEF76CFA6421B0FBF1F000EB25
:101DB000C00101EB0010ABEB8000322101EBC00051
:101DC0006421B0FBF1F000F00700504480B2B06035
:101DD00067E00420A0FB057003461920A4FB00A0C7
:101DE00001463A465046FEF74BFA82460420A0FBD5
:101DF00005711920A4FB00B084463A460B465846AC
:101E00006146FEF73DFA6421B0FBF1F000EBC00142
:101E100001EB0010AAEB8000322101EB00106421DD
:101E2000B0FBF1F000F0F00A0420A0FB05700346BF
:101E30001920A4FB00B001463A465846FEF720FAA6
:101E40006421B0FBF1F00AEB001A0420A0FB05703E
:101E500003461920A4FB00B13A465846FEF710FA93
:101E600083460420A0FB057003461920A4FB000153
:101E70003A46CDE90001FEF703FA6421B0FBF1F028
:101E800000EBC00101EB0010ABEB8000322101EB55
:101E900000106421B0FBF1F000F00F00504480B25C
:101EA000B060BDE8FC9F10B50420FFF737FD80202F
:101EB000FFF734FD0120FFF731FD0220FFF72EFD73
:101EC00010BD000000B58DB0182107A8FEF722FA5A
:101ED000182101A8FEF71EFA0220FFF71FFDC020FF
:101EE0000190022002900320039001200490002022
:101EF00005900420069001A91B48FFF72BFD4FF425
:101F00000010FFF719FD00BF1848C06820F001005D
:101F10001649C86000BF00BF0846006820F04000B6
:101F2000086000BF00BF0846006820F0800008601D
:101F300000BF002007900E480890002009900A90EA
:101F400008150B9000010C9007A90848FFF7FCFD4D
:101F500000200649C96821F0FE010143034AD1600F
:101F600000BF0DB000BD000000040240005400405E
:101F7000A086010030B58DB01C2106A8FEF7CAF975
:101F800018216846FEF7C6F94FF40020FFF7D4FC8D
:101F90000420FFF7C3FC4FF4406000900220019042
:101FA00003200290002003900490082005906946C9
:101FB0001448FFF7CFFC00F03DFB05460022052149
:101FC00000F008F904462146342000F043FB342099
:101FD00000F01EFB4FF4E1300690002007900890BF
:101FE00009900C200A9000200B900C9006A906483E
:101FF000FFF70CFE0448FFF7FBFD0348FFF701FE67
:102000000DB030BD00080240004C004000B58FB05C
:102010001C2108A8FEF77EF9182102A8FEF77AF91C
:1020200010201B4909680143194A116011460968CB
:102030000140019100BF00BF0120FFF76FFC4FF48A
:10204000C0600290022003900320049000200590BD
:1020500006900720079002A90E48FFF77BFC4FF47B
:10206000E1300890002009900A900B900C200C9011
:1020700000200D900E9008A90748FFF7C7FD0648FD
:10208000FFF7B6FD0448FFF7BCFD0FB000BD000030
:1020900044380240000002400010014030B58DB0CD
:1020A0001C2106A8FEF736F918216846FEF732F91A
:1020B0004FF40030FFF740FC0120FFF72FFC0C200D
:1020C00000900220019003200290002003900490D1
:1020D0000720059069461548FFF73CFC00F0AAFA76
:1020E00005460022052100F075F804462146262009
:1020F00000F0B0FA262000F08BFA4FF4E1300690A1
:1021000000200790089009900C200A9000200B9066
:102110000C9006A90648FFF779FD0548FFF768FD12
:102120000348FFF76EFD0DB030BD00000000024017
:102130000044004030B58DB01C2106A8FEF7EAF837
:1021400018216846FEF7E6F84FF48020FFF7F4FB0D
:102150000220FFF7E3FB4FF4406000900220019063
:102160000320029000200390049007200590694608
:102170001448FFF7EFFB00F05DFA05460022052149
:1021800000F028F804462146272000F063FA2720B3
:1021900000F03EFA4FF41650069000200790089089
:1021A00009900C200A9000200B900C9006A906487C
:1021B000FFF72CFD0448FFF71BFD0348FFF721FD47
:1021C0000DB030BD000402400048004000BFFEE7F3
:1021D00000BFFEE7F0B503460C4603F00701C1F16E
:1021E0000700042801D9042001E0C1F107000646D8
:1021F000081D072801D2002000E0C81E0546012066
:10220000B040401E2040A8400127AF407F1E17402D
:102210003843F0BD014600BF0448006800F0F000FC
:102220000009034A125C21FA02F0704708380240A4
:102230001C660008014600BF0548006800F4E05035
:10224000044A02EB9020027821FA02F07047000065
:10225000083802402C660008014600BF05480068A7
:1022600000F46040044A02EB5030027821FA02F098
:1022700070470000083802402C66000810B50024A2
:1022800000BF0C48006800F00C0020B1042804D006
:10229000082809D103E0084C08E0074C06E00820B4
:1022A00000F00CF8044601E0034C00BF00BF2046DC
:1022B00010BD0000083802400024F4002DE9F04170
:1022C000044600250026002700BF1548006800F4DA
:1022D000800006461EB1B6F5800F04D101E0114D15
:1022E00003E0104D01E00F4D00BF00BF082C14D1DA
:1022F00000BF0B48006800F03F00B5FBF0F8FFF7A7
:1023000069FC08FB00F80648006800F44030012131
:1023100001EB10404000B8FBF0F73846BDE8F08113
:10232000043802400024F40000BF012002F08CF8C1
:10233000FBE710B54FF0E020006903F0AFFE012885
:1023400001D003F065FA10BD70B503204849096853
:1023500021F007010143464A116000BF00BF00BFE2
:102360004348006800F007000328F8D14FF480408C
:102370004049096821F4804101433E4A116000BF91
:1023800000BF3D48006840F480303B49086000BF12
:1023900000BF00BF38480068C0F340400028F8D0B4
:1023A0004FF480001021C022002340EA010444EAD7
:1023B0008214314D2D1D2D68304E35402C432E4D4D
:1023C0002D1D2C602C46246824F440341C432C60C2
:1023D00000BF00BF281F006840F08070291F086000
:1023E00000BF00BF00BF24480068C0F34060002861
:1023F000F8D000BF00BF1F484068C0F380300028FD
:10240000F8D000201C490831096821F0F00101438F
:10241000194A0832116000BF4FF4A05011460968F4
:1024200021F4E0510143116000BFC000114609686A
:1024300021F460410143116000BF02201146096888
:1024400021F003010143116000BF00BF00BF0A4833
:102450000830006800F00C000828F7D10848FFF7A2
:10246000C1FB0F20FEF7EEFF08B1FEF7B8FF70BD0D
:10247000003C024000700040003802400080BFFF76
:1024800000D8B8050348006840F4700001490860AE
:102490007047000088ED00E010B50248FFF775F9BD
:1024A00010BD00005C03002010B502682D4B98425F
:1024B0000ED0B0F1804F0BD02B4B984208D02B4B55
:1024C000984205D02A4B984202D02A4B984203D119
:1024D00022F070024B681A43224B984220D0B0F190
:1024E000804F1DD0204B98421AD0204B984217D0D5
:1024F0001F4B984214D01F4B984211D01E4B98424C
:102500000ED01E4B98420BD01D4B984208D01D4B4D
:10251000984205D01C4B984202D01C4B984203D1E4
:1025200022F44072CB681A4322F080034C6943EADC
:10253000040202608B68C3620B688362094B984295
:1025400002D00C4B984201D10B6903630123436114
:10255000036903F001031BB1036923F00103036165
:1025600010BD0000000001400004004000080040D1
:10257000000C0040000401400040014000440140C4
:102580000048014000180040001C004000200040AE
:1025900010B5024800F0B2FD10BD00002C01002073
:1025A00010B5024800F08EFE10BD00004003002070
:1025B00010B5024801F049F910BD0000CC00002020
:1025C000704700BFFEE700000FB4054B10B503A92C
:1025D000044A029800F062F910BC5DF814FB000098
:1025E0009D320008C40000200FB41CB50A46521EDC
:1025F000CDE9000207A9054B6A46069800F04EF99E
:10260000009A002111701CBC5DF814FBCB2F000850
:1026100000280DDB00BF00BF00F01F020121914028
:102620004209920002F1E022C2F8001100BF00BF8F
:102630007047000002480068C0F3022070470000A5
:102640000CED00E002480068C0F302207047000073
:102650000CED00E010B5002804DB0A07130E054A54
:10266000135406E00A07140E034A00F00F031B1F61
:10267000D45410BD00E400E018ED00E010B50028CF
:1026800004DB0A07130E054A135406E00A07140E6A
:10269000034A00F00F031B1FD45410BD00E400E0F8
:1026A00018ED00E000487047C8000020EFF30580F7
:1026B000704700000000000030B583B0044600F011
:1026C00017F89FED090B05468DED000B0022214602
:1026D0006846FEF70AF8284600F020F89DED000B4A
:1026E00003B030BD0000000000000000000000004A
:1026F0000148006870470000C800002002E008C8D8
:10270000121F08C1002AFAD170477047002001E06B
:1027100001C1121F002AFBD1704700000149086067
:1027200070470000C80000202DE9FF5FDDE90220AE
:10273000010DDDF838B0024318D044F61050A1F274
:10274000FF3141430D140F98012820D0A5EB0B0059
:10275000401C5FEA000A4FF00004474EDFF81C916E
:10276000A046504616D5CAF1000728E00F9801246C
:1027700043A2012808D0002100980F9BC0E9002146
:10278000C0E90243BDE8FF9F6FEA0B01F4E7CBF11C
:102790000000DEE7074612E0F80707D0224633467E
:1027A00040464946FEF7EAF88046894622463346C7
:1027B00010461946FEF7E2F804460E467F10002F39
:1027C000EAD1DDE90201BAF1000F42464B4602DAD6
:1027D000FEF7D4F801E0FEF743F904460E46002266
:1027E000284BFEF7C5F903D84FF0FF30014607E04C
:1027F0000022254B20463146FEF719F8FEF79FF9D7
:10280000102409E0002C0ADB0A220023FDF738FD22
:10281000019B30321A55641E50EA0102F2D1641C49
:10282000019AC4F1110314440F9A012A03D0012222
:1028300008430DD10AE0084304D000204FF0110BEB
:102840000F9080E7A3EB0B056D1E0DE05B4504DDEB
:102850004FF0000205F1010504E003DA4FF0000239
:10286000A5F10105002AECD000980F99C0E90231CA
:10287000C0E9004586E70000000024400000F03F6A
:10288000300000000000F0430000E03F30380A282C
:1028900001D2012070470020704700002DE9FF4F52
:1028A00095B09B468946064600250FE2252877D13C
:1028B00000242746F84A0121059400E0044316F855
:1028C000013F203B01FA03F01042F7D130782A286B
:1028D00011D06FF02F033078A0F13002092A16D8FA
:1028E000059A44F0020402EB820203EB4202104418
:1028F000761C0590EFE759F8042B0592002A03DABD
:10290000504244F40054059044F00204761C3078A0
:102910002E2816D116F8010F44F004042A280DD0F1
:102920006FF02F023078A0F13003092B09D807EBA4
:10293000870302EB4303C718761CF3E759F8047BBF
:10294000761C30786C280FD006DC4C2817D068280D
:102950000DD06A2814D104E0742810D07A280FD141
:102960000DE044F400140AE044F4801401E044F45F
:1029700040147278824202D104F58014761C761CD1
:10298000307866280BD013DC582877D009DC002873
:1029900075D04528F6D04628F4D047281AD19DE1B5
:1029A00018E0632835D0642879D0652812D195E1E4
:1029B000702873D008DC6728F1D069286FD06E28A2
:1029C0000DD06F2806D1B5E073282CD0752875D0AE
:1029D000782874D05A46179990476D1C75E1C4F356
:1029E0000250022809D003280DD0D9F8001004287D
:1029F0000DD00D6009F1040967E1D9F80010EA175C
:102A0000C1E90052F6E7D9F800100D80F2E70D7029
:102A1000F0E719F8041B8DF8001000208DF8010074
:102A2000EA46012003E059F804AB4FF0FF3061079C
:102A30004FF0000102D40DE008F101018846B942CF
:102A40000FDA8045F8DB1AF808100029F4D108E005
:102A500008F1010188468142FADB1AF808100029C2
:102A6000F6D105985B46A0EB080721463846179A31
:102A700000F094FA284400EB080507E04DE029E156
:102A80000DE01AF8010B5A4617999047B8F1010862
:102A9000F7D25B4621463846179A13E142E00A22F4
:102AA0000092C4F302524FF0000A022A08D059F8EB
:102AB00004CB032A4FEAEC710AD00DE029E02AE0AA
:102AC00009F1070121F00702F2E802C1914609E08D
:102AD0000FFA8CFC4FEAEC71042A03D14FFA8CFCFC
:102AE0004FEAEC71002907DA0A460021DCF1000CFC
:102AF00061EB02012D2202E0220504D52B228DF884
:102B00000420012203E0E20701D02022F7E79046EB
:102B100059E00A2102E010220DE010214FF0000AD6
:102B200000910BE010224FF0000A44F00404082743
:102B3000009203E008224FF0000A0092C4F3025210
:102B4000022A05D059F804CB0021032A08D009E055
:102B500009F1070121F00702F2E802C1914605E000
:102B60001FFA8CFC042A01D10CF0FF0C4FF0000876
:102B7000220728D5702806D0009B83F0100353EA63
:102B80000A0305D00EE040228DF80420012208E05F
:102B90005CEA010206D030228DF804208DF8050091
:102BA00002229046009B83F0080353EA0A030AD1ED
:102BB0005CEA010201D1620705D530228DF80420BC
:102BC0004FF001087F1E582804D034A003900EA8AF
:102BD00002900DE036A0F9E753466046009AFDF7F3
:102BE0004FFB84460398825C0298401E029002705C
:102BF0005CEA0100F0D1029806A9081A00F1200A47
:102C0000600702D524F4803400E00127574502DD37
:102C1000A7EB0A0000E0002000EB0A0100900598F5
:102C20004144401A0590E00306D45B462146179ABA
:102C3000059800F0B3F90544002706E001A85A46BC
:102C4000C05D179990476D1C7F1C4745F6DBE0037C
:102C50000CD55B462146179A059800F09FF905446C
:102C600004E030205A46179990476D1C0099481E81
:102C700000900029F5DC08E0029802995A46007895
:102C8000491C0291179990476D1CBAF10001AAF1F5
:102C9000010AF1DC65E1000009280100303132331E
:102CA0003435363738396162636465660000000088
:102CB0003031323334353637383941424344454672
:102CC0000000000000F058F90544761C3078002818
:102CD0007FF4ECAD19B02846BDE8F08F620700D450
:102CE000062709F1070222F0070CFCE80223E1465F
:102CF00003F000485FEA080C02D00FF2702C0DE0E0
:102D00005FEA045C02D50FF2682C07E05FEAC47C3E
:102D100002D00FF2602C01E0AFF2700C4FF0FF38E0
:102D200023F00043CDF850C065280CD006DC4528C0
:102D300009D046281DD047283DD13DE0662818D04F
:102D400067287ED138E00021112F01DB112000E03F
:102D5000781CCDE9000106A90EA8FFF7E5FCDDE926
:102D60000F010E9A03910021009207F1010A0491CC
:102D70004DE04FF000400097CDE9011006A90EA8E4
:102D8000FFF7D2FCDDE90F0203920E9B119900229E
:102D9000DDF80CA00093049211B9791C00EB010A34
:102DA000B7EB0A0004D4C0F1FF3007F1010A049028
:102DB000AAEB0700019044E0012F00DA012700216F
:102DC000112F01DD112000E03846CDE9000106A9F0
:102DD0000EA8FFF7A9FCDDE90F010E9A039100216F
:102DE00004910092BA4621070CD40399514500DAA8
:102DF0008A46BAF1010F05DD009AAAF10101515C82
:102E0000302908D0B84202DA10F1040F06DA0121A5
:102E1000CDE9011015E0AAF10101E9E7002805DC80
:102E2000049901440491AAEB000102E0411C5145C0
:102E300000DD8A460499401A401C01904FF0004082
:102E40000290200704D40198504501DBCDF804809E
:102E500000208DF84F0002980DF14F07B0F1004FA0
:102E600025D02B200E9002984FF0020800280CDA93
:102E7000404202902D200E9007E00A210298FDF7B3
:102E8000A1FB3031029007F8011DB8F10001A8F153
:102E90000108F2DC02980028EFD1791E0E98087024
:102EA000307800F0200040F0450007F8020D12A82D
:102EB000C01B00F107081498007800B1012000EB56
:102EC0000A01019801EBE07105984144401A401E47
:102ED0000590E00306D45B462146179A059800F05A
:102EE0005DF805441498007818B15A461799904730
:102EF0006D1CE00324D55B462146179A059800F027
:102F00004DF805441CE00498002807DBDDE90301C7
:102F1000884203DD0098405C179901E01799302042
:102F20005A469047049805F10105401C0490019809
:102F3000401E019004D12E205A46179990476D1CCF
:102F4000BAF10001AAF1010ADDDC05E017F8010B76
:102F50005A46179990476D1CB8F10001A8F1010875
:102F6000F4DC5B462146179A0598ABE62D0000007D
:102F70002B000000200000002DE9F0410446002550
:102F80001E461746880404D405E039462020B04781
:102F90006D1C641EF9D52846BDE8F0812DE9F0418D
:102FA000044600251E469046C80301D5302700E0A0
:102FB0002027880404D505E041463846B0476D1CFB
:102FC000641EF9D52846BDE8F0814A68002A06D07B
:102FD0000A68531C0B6010704868401E48607047B8
:102FE00010B504464FF480622146054800F0B8FC55
:102FF000044A0021044801F07DFA0449086010BD2C
:10300000CC000020506500081130000800000020AE
:10301000054800F000FC05E0034800F0D1FC012069
:1030200001F012FAF8E70000CC000020AA2101709C
:103030005521417090F80111891C80F801117047E9
:1030400010B590F801410444216090F80141241D1D
:1030500080F8014190F801410444226090F8014158
:10306000241D80F8014190F801410444236090F848
:103070000141241D80F8014110BD01B52DED060B65
:1030800090F801110144009A0A60019A4A6090F890
:103090000111083180F8011190F801110144029AE0
:1030A0000A60039A4A6090F80111083180F8011112
:1030B00090F801110144049A0A60059A4A6090F858
:1030C0000111083180F8011107B000BD90F801210D
:1030D000815490F80121521C80F80121704755213C
:1030E00090F801218154AA2290F80111491C425400
:1030F00090F80111891C80F80111704710B5044641
:1031000020680168C1F3401169B120684268D2B2F9
:10311000114694F80521201D815494F80501401CA6
:1031200084F805011AE020680168C1F30011A9B113
:10313000002304F50472211DD4F8080202F040FDBA
:10314000D4F81002012806D1000705490860BFF332
:103150004F8FBFF36F8F002184F8051110BD000061
:1031600004ED00E090F80111002242547047000085
:1031700070B504460D462560002184F8051184F8D9
:10318000071200224FF481710A2002F05BFBC4F8A1
:103190000802054A2146054801F0ACF9C4F80C02C2
:1031A0000020C4F8100270BD7C6500086F32000872
:1031B0002DE9F0412DED068B04460D4617461E46BF
:1031C000B0EE408AF0EE608AB0EE419AF0EE619A7D
:1031D000B0EE42AAF0EE62AA04F58370FFF726FF74
:1031E000022104F58370FFF771FF33463A46294602
:1031F00004F58370FFF724FFB0EE4A2AF0EE6A2A46
:10320000B0EE491AF0EE691AB0EE480AF0EE680A1C
:1032100004F58370FFF731FF04F58370FFF75FFF5C
:10322000204600F004F8BDEC068BBDE8F08170B5D7
:10323000044600250CE000BF2068FEF749FD002889
:10324000FAD004F58372515D2068416000BF6D1CA7
:1032500094F80702A842EEDC00BF2068FEF738FDB4
:103260000028FAD0002184F80712012070BDC2B0F6
:103270000446254611E002E0642001F0E5F8002252
:1032800001A9D5F8080202F019FD0128F4D101A81E
:10329000FFF768FF012001F0D7F8ECE708B50A4610
:1032A000C1B200919DF80010054B596000BF00BFEE
:1032B00000BF03490968C1F3C0110029F8D008BD57
:1032C0000010014070B5044620680168C1F3401148
:1032D00061B1606850B120684268D2B21146D4E949
:1032E00001201154A068401CA06000BF2068016844
:1032F000C1F3001100292ED020680068C5B22068F3
:103300004068C5B20021D4E901201154002304F122
:103310001802211DE06802F053FC012802D00EA023
:10332000FFF752F904F11802211D206902F07AFD1D
:10333000012801D0002060600021A160A06901285F
:1033400006D1000709490860BFF34F8FBFF36F8FA5
:103350000020A06100BF70BD73656E64206D73674F
:10336000206661696C65640D0A00000004ED00E0F0
:10337000F8B504460E461546266000220821284668
:1033800002F060FAE0600021A16000206060A061AE
:10339000206800BF00BF00BF00F10C0252E8002F00
:1033A00042F0100100F10C0242E80013002BF3D1AF
:1033B00000BF00BF206800BF00BF00BF00F10C02CB
:1033C00052E8002F42F0200100F10C0242E8001305
:1033D000002BF3D100BF00BF104A2146104801F076
:1033E00089F8606100220421284602F02BFA20614E
:1033F00000270BE04FF4807001F0EAFD00900023FD
:103400001A466946206902F007FB7F1CAF42F1DBD8
:103410000022211D206902F051FCF8BDA8650008BA
:10342000013600082DE9F0412DED068B04460025FC
:103430000026002721A12068FCF7A4FF8046404613
:10344000FDF784F805461DA10020FCF79BFF804690
:103450004046FDF77BF8064618A10020FCF792FFD6
:1034600080464046FDF772F8074615480068FDF7AC
:103470007AF841EC180B13480068FDF774F841EC3A
:10348000190B11480068FDF76EF841EC1A0BB0EE0D
:10349000482AF0EE682AB0EE491AF0EE691AB0EE4A
:1034A0004A0AF0EE6A0A3B462A4631460748FFF7C9
:1034B0007FFEBDEC068BBDE8F08100002C00000013
:1034C0002C00002028000020240000202C010020D7
:1034D00070B52DED068B84B005460C461646B0EE51
:1034E000408AF0EE608AB0EE419AF0EE619AB0EE5A
:1034F00042AAF0EE62AA1DB104F11800B04204D352
:10350000002004B0BDEC068B70BD8DED029B8DEDEF
:10351000008B281903A23146FFF766F804442046C1
:10352000EFE70000252E34662C252E3466000000BF
:103530002DE9F04104460D4617462DB90EA0FFF7C0
:1035400043F80020BDE8F08100260AE000BF2068B3
:10355000FEF7C3FB0028FAD0A95D2068416000BFD8
:10356000761CBE42F2DB00BF2068FEF7B6FB0028E7
:10357000FAD00120E6E700006572726F72206F6377
:1035800063757220696E206869333836312073653F
:103590006E64206D73670D0A0000000070B52DED9C
:1035A000068B8EB00446B0EE408AF0EE608AB0EE34
:1035B000419AF0EE619AB0EE42AAF0EE62AA34218E
:1035C00001A8FCF7A7FE32260025B0EE4A2AF0EE4D
:1035D0006A2AB0EE491AF0EE691AB0EE480AF0EE27
:1035E000680A3246294601A8FFF772FF05463246AF
:1035F00001A92046FFF79CFF0EB0BDEC068B70BD05
:103600001CB50446254616E002E0012000F01CFF30
:1036100000226946E86802F051FB0128F5D16846AE
:10362000FFF700FF00231A466946286902F0F4F903
:10363000012000F009FFE7E710B5044608A0FEF7F7
:10364000C3FF08A0FEF7C0FF10A0E168FEF7BCFFB3
:1036500004A0FEF7B9FF02A0FEF7B6FF10BD000000
:103660000A0D00002A2A2A2A2A2A2A2A2A2A2A2A4B
:103670002A2A2A2A2A2A2A2A2A2A2A2A2A2A2A2AAA
:103680002A2A2A2A2A2A2A2A2A0A0D0025730A0DFA
:10369000000000008AB0FDF7B7FEFEF755FEFEF70A
:1036A00002FCFEF70FFCFEF765FCFEF7AFFCFEF731
:1036B000F5FCFEF73FFD2422114901A8FCF711FE9D
:1036C00000F0D2FE0F4A00210F4800F013FF0F490F
:1036D00008600F48FFF784FC0E490F48FFF748FDCC
:1036E00005220E490E48FFF743FE01AA00210D48AE
:1036F00000F000FF0C49086000F0CCFE00BFFEE7C0
:10370000F8650008D4650008292300081C00002083
:1037100000480040004C00402C01002000440040C4
:10372000400300202D370008200000202DED068BDF
:10373000294800F070F8012000F086FE4BE0264892
:1037400000F066F8044634B124A0FEF73DFF22489D
:10375000FFF772FF0AE025A0FEF736FF1E48FFF7CD
:103760006BFF4FF47A7000F06FFE34E024491A4882
:1037700000F0D3F82349184800F0E0F82249164831
:1037800000F0BAF820480068FCF7EDFE41EC180B99
:103790001C480068FCF7E7FE41EC190B184800686C
:1037A000FCF7E1FE41EC1A0BB0EE482AF0EE682A75
:1037B000B0EE491AF0EE691AB0EE4A0AF0EE6A0A63
:1037C0001248FFF7EBFE044800F025F84FF47A703A
:1037D00000F03AFE00BFB2E7CC0000206174676DD4
:1037E0002069732072656164790A0D006174676DE8
:1037F000206973206E6F742072656164790A0D0010
:1038000024000020280000202C000020400300207D
:103810000146487D704710B5044602E0012000F0E3
:1038200013FE207D0028F9D101202075002020837F
:1038300084F8440084F85000618AA068FCF76AFDAF
:10384000002020826075207510BD70B50446206888
:103850000168C1F34011A1B120684168C9B20D46A9
:10386000607D00B170BD218A608A401E814207DA06
:10387000218A481C2082A0684554FDF7B3FD606092
:1038800000BF00BFEEE70246511C002309E00878A4
:1038900010B1881A802801DD002070470878434065
:1038A000491C08782A2802D008780D28EFD118463C
:1038B000F3E70000B0EE401ABDEEC10A10EE100AA8
:1038C000642190FBF1F000EE900AB8EEE02ADFED03
:1038D000082AB0EE410A02EE620AF0EE401A9FEDAD
:1038E000052A81EE820AB8EEE02A30EE020A70471D
:1038F0000000C8420000704202460AB9002070472A
:10390000107EC0F3801030B119B192ED0E0A81ED36
:10391000000A0120F3E70020F1E702460AB900207F
:103920007047107EC0F3C00030B119B192ED0B0AA0
:1039300081ED000A0120F3E70020F1E702460AB911
:1039400000207047107EC0F3001030B119B192ED25
:103950000C0A81ED000A0120F3E70020F1E70000E6
:1039600070B504460E461546A06808B1002070BD2B
:1039700060212046FCF7CEFC2660284601F028FB9B
:10398000A060284601F024FBE060A06808B9002090
:10399000EDE76582094800BF00BF00BF00F10C02DF
:1039A00052E8002F42F0200100F10C0242E800131F
:1039B000002BF3D100BF00BF0120D8E70048004032
:1039C0002DE9F04F2DED028BA3B0044602E001205B
:1039D00000F03AFD207D0028F9D101202075208AD1
:1039E00000287DDDFDF7FEFC6168401A642877D968
:1039F00000250027A84600BF00BFFA4A1168A0684A
:103A0000FCF793FC0546002D6BD0ED1E287824288A
:103A100000D040E1F4A12846FCF787FC074607B92F
:103A200039E178788DF80800B8788DF809008021A0
:103A300003A8FCF76FFC781B00F10309B9F1800FB4
:103A400000D928E14A46294603A8FCF780FC03A8D0
:103A5000FFF719FF82460020019001AAE3A102A806
:103A6000FCF7B2FC019850457ED1E1A103A8FCF718
:103A700089FC06464FF0020B04E1DDA10020FCF7B3
:103A800081FC0646ABF1020009286ED2DFE800F0A7
:103A90000530446E82AAABBCD5003078302802DBFA
:103AA0003078392800DDE4E070783038317830390A
:103AB00001EB810100EB4100E076F0783038B1781D
:103AC000303901EB810100EB41002077707930380B
:103AD0003179303901EB810100EB4100607701E081
:103AE000FEE3D7E0208B20F00200801C2083C0E0A2
:103AF0003078302802DB3078392800DDB9E03046F4
:103B0000FEF7DAFDB0EE408AF0EE608A51EC180B59
:103B1000FCF73CFD6062ACE0B6A13046FCF723FC4C
:103B200078B9D4ED090AB0EE600AFFF7C3FEB1EE32
:103B3000400A84ED0B0A208B20F008000830208317
:103B400011E0ADA13046FCF70EFC60B9D4ED090AD6
:103B5000B0EE600AFFF7AEFE84ED0B0A208B20F07A
:103B600008000830208384E093E07FE0307830283C
:103B700002DB3078392800DD7BE03046FEF79CFD23
:103B8000B0EE408AF0EE608A51EC180BFCF7FEFCB8
:103B9000A0626EE099A13046FCF7E5FB78B9D4ED60
:103BA0000A0AB0EE600AFFF785FEB1EE400A84ED26
:103BB0000C0A208B20F010001030208311E090A11F
:103BC0003046FCF7D0FB60B9D4ED0A0AB0EE600ACB
:103BD000FFF770FE84ED0C0A208B20F010001030EF
:103BE000208346E045E03078302802DB3078392801
:103BF00000DD3EE03046FCF7A9FCA076208B20F0EB
:103C00000100401C208334E03078302802DB30781B
:103C1000392800DD2DE03046FEF74EFDB0EE408A3B
:103C2000F0EE608A51EC180BFCF7B0FC6063208B5F
:103C300020F02000203020831BE03078302802DB89
:103C40003078392800DD14E03046FEF735FDB0EE5F
:103C5000408AF0EE608A51EC180BFCF797FCA063E9
:103C6000208B20F040004030208302E04FF001081C
:103C700000BF00BF0BF1010000F0FF0BB8F1000F17
:103C800000D002E0002E7FF4F8AE00BF0120607586
:103C900000BF00BF00BF00BF00BF4FF00008514A87
:103CA0005168A068FCF741FB0546002D6FD0ED1E62
:103CB0002878242800D06CE14BA12846FCF735FB7E
:103CC000074607B965E178788DF80800B8788DF86F
:103CD0000900802103A8FCF71DFB781B00F10309F4
:103CE000B9F1800F00D954E14A46294603A8FCF7F0
:103CF0002EFB03A8FFF7C7FD82460020019001AA12
:103D00003AA102A8FCF760FB019850457AD138A18E
:103D100003A8FCF737FB06464FF0020B30E134A155
:103D20000020FCF72FFB0646ABF1020009286AD2FF
:103D3000DFE800F0052E2F437E92BCD5F0003078EE
:103D4000302802DB3078392800DD10E17078303817
:103D50003178303901EB810100EB4100E076F078F9
:103D60003038B178303901EB810100EB4100207728
:103D7000707930383179303901EB810100EB410045
:103D80006077208B20F00200801C2083EFE0FFE0B2
:103D9000EDE03078302802DB3078392800DDE6E0CD
:103DA0003046FEF789FCB0EE408AF0EE608A51ECB6
:103DB000180BFCF7EBFB6062D9E00EA13046FCF774
:103DC000D2FA08BBD4ED090AB0EE600AFFF772FD23
:103DD000B1EE400A84ED0B0A208B20F00800083079
:103DE000208324E0040000202A0000002558000061
:103DF0002C2A0000530000004E0000005700000075
:103E000045000000C3E0AFE0AFF214013046FCF71C
:103E1000AAFA60B9D4ED090AB0EE600AFFF74AFDCC
:103E200084ED0B0A208B20F00800083020839EE0F0
:103E30003078302802DB3078392800DD97E03046D2
:103E4000FEF73AFCB0EE408AF0EE608A51EC180BB7
:103E5000FCF79CFBA0628AE0AFF260013046FCF701
:103E600082FA78B9D4ED0A0AB0EE600AFFF722FDB3
:103E7000B1EE400A84ED0C0A208B20F010001030C7
:103E8000208312E0AFF288013046FCF76CFA60B98B
:103E9000D4ED0A0AB0EE600AFFF70CFD84ED0C0ABF
:103EA000208B20F010001030208360E03078302824
:103EB00002DB3078392800DD59E03046FEF7FCFBA4
:103EC000B0EE408AF0EE608A51EC180BFCF75EFB16
:103ED000E063208B20F080008030208347E0307842
:103EE000302802DB3078392800DD40E03046FEF72C
:103EF000E3FBB0EE408AF0EE608A51EC180BFCF761
:103F000045FB2064208B20F4807000F580702083B6
:103F10002DE0FFE73078302802DB3078392800DDEB
:103F200025E0707830383178303901EB810100EBD1
:103F30004100C1B220200155F0783038B1783039D5
:103F400001EB810100EB4100E07770793038317985
:103F5000303901EB810100EB4100A077208B20F08C
:103F60000400001D208302E04FF0010800BF00BFE5
:103F70000BF1010000F0FF0BB8F1000F00D002E0E0
:103F8000002E7FF4CCAE00BF0120607500BF00BFE3
:103F900000BF00BF00BF4FF00008F74A9168A0685B
:103FA000FCF7C3F90546D5B3ED1E2878242800D0C8
:103FB0006EE0AFF2CC112846FCF7B7F9074607B917
:103FC00066E078788DF80800B8788DF809008021CF
:103FD00003A8FCF79FF9781B00F10309B9F1800FE2
:103FE00000D955E04A46294603A8FCF7B0F903A8D2
:103FF000FFF749FC82460020019001AAAFF214218C
:1040000002A8FCF7E1F9019850453FD1AFF2202119
:1040100003A8FCF7B7F906464FF0020B30E036E094
:10402000AFF234210020FCF7ADF90646BBF1020FD8
:104030001AD13078302802DB3078392800DD16E0DC
:104040003046FEF739FBB0EE408AF0EE608A51EC64
:10405000180BFCF79BFAA06494F8440020F00100D0
:10406000401C84F8440002E04FF0010800BF00BF8C
:104070000BF1010000F0FF0BB8F1000F00D001E0E0
:10408000002ECDD100BF0120607500BF00BF00BF72
:1040900000BF00BF4FF00008B74AD168A068FCF726
:1040A00044F90546D5B3ED1E2878242800D06EE0EB
:1040B000AFF2CC212846FCF738F9074607B966E08D
:1040C00078788DF80800B8788DF80900802103A869
:1040D000FCF720F9781B00F10309B9F1800F00D932
:1040E00055E04A46294603A8FCF731F903A8FFF733
:1040F000CAFB82460020019001AAAFF2103102A84B
:10410000FCF762F9019850453FD1AFF21C3103A88A
:10411000FCF738F906464FF0020B30E036E0AFF21C
:1041200030310020FCF72EF90646BBF1020F1AD100
:104130003078302802DB3078392800DD16E0304650
:10414000FEF7BAFAB0EE408AF0EE608A51EC180B36
:10415000FCF71CFAE06494F8440020F00200801C94
:1041600084F8440002E04FF0010800BF00BF0BF1EB
:10417000010000F0FF0BB8F1000F00D001E0002EAD
:10418000CDD100BF0120607500BF00BF00BF00BFE0
:1041900000BF4FF00008784A1169A068FCF7C5F825
:1041A0000546D5B3ED1E2878242800D08DE0AFF267
:1041B000C8312846FCF7B9F8074607B985E0787892
:1041C0008DF80800B8788DF80900802103A8FCF765
:1041D000A1F8781B00F10309B9F1800F00D974E050
:1041E0004A46294603A8FCF7B2F803A8FFF74BFBA1
:1041F00082460020019001AAAFF2104102A8FCF70C
:10420000E3F8019850455ED1AFF21C4103A8FCF7DA
:10421000B9F806464FF0020B4FE055E0AFF23041DF
:104220000020FCF7AFF80646BBF1020F03D0BBF14C
:10423000030F36D11AE03078302802DB3078392885
:1042400000DD31E03046FEF737FAB0EE408AF0EE9E
:10425000608A51EC180BFCF799F9606594F85000EE
:1042600020F00100401C84F850001DE03078302818
:1042700002DB3078392800DD16E03046FEF71CFA04
:10428000B0EE408AF0EE608A51EC180BFCF77EF934
:10429000A06594F8500020F00200801C84F85000C3
:1042A00002E04FF0010800BF00BF0BF1010000F079
:1042B000FF0BB8F1000F00D001E0002EAED100BF1F
:1042C0000120607500BF00BF00BF00BF00BF4FF0FE
:1042D0000008294A5169A068FCF727F8054600E064
:1042E000A8E0D5B3ED1E2878242800D094E0AFF2E2
:1042F00008512846FCF719F8074607B98CE078788A
:104300008DF80800B8788DF80900802103A8FCF723
:1043100001F8781B00F10309B9F1800F00D97BE0A7
:104320004A46294603A8FCF712F803A8FFF7ABFAA0
:1043300082460020019001AAAFF2505102A8FCF77A
:1043400043F80198504565D1AFF25C5103A8FCF7E2
:1043500019F806464FF0020B56E05CE0AFF27051E0
:104360000020FCF70FF80646BBF1020F06D0BBF1A8
:10437000030F3DD116E00000040000203078302803
:1043800002DB3078392800DD35E03046FEF794F95D
:10439000B0EE408AF0EE608A51EC180BFCF7F6F8AC
:1043A000E06528E03078432807D194F8500020F0E9
:1043B0000400001D84F8500019E03078462816D11A
:1043C00094ED170ADFED1F0A30EE600AF1EE040AE1
:1043D00020EE200AF2EE020A80EE201A84ED171A6F
:1043E00094F8500020F00400001D84F8500002E012
:1043F0004FF0010800BF00BF0BF1010000F0FF0B00
:10440000B8F1000F00D001E0002EA7D100BF0120BD
:10441000607500BF00BF00BF00BF238A5A1CD4E9EB
:104420000210FBF75EFF618AA068FBF773FF0020B4
:10443000208200BF0020207523B0BDEC028BBDE8B8
:10444000F08F00000000004270B50546FEF72EF91F
:1044500010B16FF0050404E0002415B1284600F007
:10446000FBFF204670BD000010B5FEF71FF910B12C
:104470006FF0050409E00648006820B901200449EE
:104480000860002401E04FF0FF34204610BD00001A
:104490009000002070B5FEF709F910B16FF0050427
:1044A0001FE011480068012819D100BF801F0021BA
:1044B000002804DB0A07130E0C4A135406E00A070F
:1044C000150E0B4A00F00F031B1FD55400BF00BF91
:1044D00002200549086001F03BF8002401E04FF09C
:1044E000FF34204670BD00009000002000E400E092
:1044F00018ED00E02DE9FF4780468946144600206C
:104500000390FEF7D3F800284ED1B8F1000F4BD03E
:10451000802618258246471E44B3206808B1D4F887
:1045200000A0A06900B1A5692DB1382D03D820796C
:1045300000F0010018B1002004B0BDE8F087606908
:1045400008B160698608A06840B1E0685C2805D3BE
:10455000206918B1606908B1012708E0A06830B986
:10456000E06820B9206910B9002700E00027012F7A
:104570000CD12169A0684B463246CDE9005102902A
:104580005146404601F02CFD03900DE067B903A8A9
:10459000B2B24B465146CDE90050404601F0EEFC28
:1045A000012801D0002003900398C5E72DE9F041D0
:1045B00005460E461648076816480068001D00F0BC
:1045C000C3FD681C38B936B112480168091D12488C
:1045D00000F010FE1AE07C190E4800684460BC42EE
:1045E00007D20C480168091D0C48006800F0E8FD7E
:1045F0000CE008480168091D0948006800F0E0FD6A
:1046000008480068844201D206480460BDE8F08191
:1046100054000020400000209408002048000020A2
:10462000440000207000002010B5044600F0EEFDAC
:1046300024480068401C234908602348006840B9AA
:10464000214804600846006801280DD100F0FCF9FB
:104650000AE01E48006838B91B480068C06AE16A71
:10466000884201D81848046019480068401C18495D
:1046700008600846006860641649E06A0968884274
:1046800002D91449E06A0860E16A01EB8101124A2B
:1046900002EB8100211D00F0ADFD00F0E1FD0B48B3
:1046A000006868B108480068C06AE16A884207D2B9
:1046B0004FF0805009490860BFF34F8FBFF36F8FF1
:1046C00010BD000050000020400000205C000020D1
:1046D0006C00002058000020E403002004ED00E0FE
:1046E00008B500F093FD12480068E8B9114800F0E1
:1046F00057FD114800F054FD0E48104908600E485F
:104700000F49086000200F4B0F4A102100900A202B
:1047100001F0C5F8064908600846006820B10BA101
:104720000348006800F05CFE00F09AFD08BD000040
:1047300084000020A8080020BC0800207C00002085
:1047400080000020D008002020090020546D725104
:104750000000000010B516E000F058FD0C48C068DD
:10476000C468201D00F0F0FC0A480068401E09499A
:10477000086009480068401E0749086000F070FDA5
:10478000204600F05FF8044800680028E4D110BD1E
:1047900080080020500000204C00002070B5044626
:1047A0000D46206C70B1216CE0680144E160D4E9F1
:1047B0000210884201D32168E1602846226CE1683A
:1047C000FBF78FFD70BD2DE9F04104460F461546FD
:1047D0004FF00008A66B206C48B9206800282CD147
:1047E000A06801F013FD80460020A06025E07DB99F
:1047F0003946226C6068FBF774FD216C60680844E0
:104800006060D4E90101884217D32068606014E039
:104810003946226CE068FBF764FD216CE068411AC0
:10482000E1602168E068884203D2216CA068411AE7
:10483000E160022D01D106B1761E701CA0634046D6
:10484000BDE8F08110B5044694F8590030B9206BEA
:1048500000F024FD204600F021FD1AE094F85900F4
:10486000012803D1204600F019FD12E094F8590008
:10487000022801D1012000E0002050B900BF5020E3
:1048800080F31188BFF34F8FBFF36F8F00BF00BF5E
:10489000FEE710BD0146084A126812680AB90122F3
:1048A00000E000220A600A6822B9034A1268D2684E
:1048B000106800E0002070477C00002030B54FF405
:1048C0007053174800F007042CB1C01D20F00700FA
:1048D000134C041B1B1B0246124C22600024114D7A
:1048E0006C60D018083820F007000F4C20600024BE
:1048F0000D4D2D686C600C4D2D682C601146441ACE
:104900004C60094C24680C60084D4C682C60084DC4
:104910004C682C604FF00044064D2C6030BD000008
:1049200078100020940000209C000020A4000020AB
:10493000A0000020B000002000BFFFF70BFF0648DA
:1049400000680128F9D94FF0805004490860BFF38E
:104950004F8FBFF36F8FF0E7E403002004ED00E01A
:104960002DE9F04106460D4617469846069C0DB9BE
:10497000246000E02760E66325640121204600F002
:10498000FFFF84F84C80BDE8F0812DE9F05F82469E
:104990000E4690469B460A9F0C9C4FEA8801A52232
:1049A000206BFBF7B0FCA8F10100216B01EB800943
:1049B00029F0070909F0070008B9012000E00020EC
:1049C00050B900BF502080F31188BFF34F8FBFF361
:1049D0006F8F00BF00BFFEE786B1002507E0715D65
:1049E00004F134004155705D00B902E06D1C102DDA
:1049F000F5D300BF00214320015502E0002084F8D8
:104A00003400382F00D33727E762E76400202065A1
:104A1000201D00F0D2FB04F1180000F0CEFB246151
:104A2000C7F13800A06164620020606584F8580016
:104A30005A465146484600F071FB20600B9808B179
:104A40000B980460BDE8F09F10B5002407E004EB6C
:104A500084010F4A02EB810000F0A2FB641C382C99
:104A6000F5D30C4800F09CFB0B4800F099FB0B4879
:104A700000F096FB0A4800F093FB0A4800F090FB18
:104A800004480949086004480849086010BD00004E
:104A9000E403002044080020580800206C0800208F
:104AA00080080020940800204400002048000020D6
:104AB00010B50146164800E0006803688B42FBD33E
:104AC0000246436813448B4204D143684C68234434
:104AD000436001460A464B6813440468A34211D15F
:104AE0000C4C03682468A34208D04B6804686468CF
:104AF00023444B6003681B680B6005E0054B1B6893
:104B00000B6001E003680B60884200D0016010BDBB
:104B1000940000209C0000202DE9F04104460D4641
:104B200016461F464FF0000865602461B5420CD858
:104B3000F01BA169884202D34FF0010811E0211D4A
:104B40000948006800F03CFB0BE0BE4204D2BD42C5
:104B500002D34FF0010804E0211D0448006800F072
:104B60002FFB4046BDE8F081800000207C00002043
:104B700070B5054600F04AFBA86B08B9012400E0B7
:104B8000002400F06DFB204670BD70B5054600F0B6
:104B90003DFBA86BE96B884201D1012400E00024B1
:104BA00000F05EFB204670BDF8B505460F461A487A
:104BB0000068C068C468201D00F0C6FA94F8280098
:104BC00000F00400E8B1A06941192B463A4620469E
:104BD000FFF7A2FFD8B1002003462A460146009005
:104BE000204601F06FFC064656B900BF502080F306
:104BF0001188BFF34F8FBFF36F8F00BF00BFFEE779
:104C000005E094F8280020F0010084F828002046F0
:104C1000216A8847F8BD00007C000020F0B587B00D
:104C2000A0E00398002811DA04AE56B900BF502066
:104C300080F31188BFF34F8FBFF36F8F00BF00BFAA
:104C4000FEE7D6E90020B168904700BF039800282E
:104C5000E6DB059C606908B9012000E0002010B97E
:104C6000201D00F071FA02A800F0DEF80546039856
:104C70000A2875D2DFE800F0090507394163060804
:104C80003A4200BF00BF00BF00BF94F8280040F0C8
:104C9000010084F828000498A269811803462A4676
:104CA0002046FFF739FFF8B12046216A884794F87B
:104CB000280000F00400B8B1002000900498A16919
:104CC000421800231946204601F0FCFB074657B95D
:104CD00000BF502080F31188BFF34F8FBFF36F8F59
:104CE00000BF00BFFEE700BF3BE000BF94F8280014
:104CF00020F0010084F8280033E000BF94F8280079
:104D000040F0010084F828000498A061A06908B16F
:104D1000012000E0002050B900BF502080F311882E
:104D2000BFF34F8FBFF36F8F00BF00BFFEE7A069D7
:104D300041192B462A462046FFF7EEFE11E094F873
:104D4000280000F0020018B9204600F0A7FA05E09C
:104D500094F8280020F0010084F8280001E0FFE723
:104D600000BF00BF002203A90448006800F0A6FFAE
:104D700000287FF456AF07B0F0BD0000840000208B
:104D8000F8B505460C4600F03FFC684600F04CF8CC
:104D90000646009820BB44B9B54206D801F0D4FAC3
:104DA00031462846FFF700FF1CE03CB10E48006882
:104DB000006808B9012000E000200446A91B224633
:104DC0000A48006800F022FB01F0BEFA50B94FF02B
:104DD000805007490860BFF34F8FBFF36F8F01E02A
:104DE00001F0B2FAF8BD000080000020840000202D
:104DF00004ED00E00A490968096809B9012100E0E9
:104E0000002121B14FF0FF31064A116006E004494C
:104E10000968C968C868034A4168116070470000A2
:104E2000440000207000002070B5044601F046F9EF
:104E3000054607480068854204D200F00BF80120BF
:104E4000206001E00020206001480560284670BD18
:104E50008C0000202DE9F84334E025480068C06844
:104E6000056823480068C068C468201D00F06CF91C
:104E70002046216A884794F8280000F0040008B30F
:104E8000A0694619AE4207D966602461211D184801
:104E9000006800F095F915E0002003462A46014617
:104EA0000090204601F00EFB074657B900BF502086
:104EB00080F31188BFF34F8FBFF36F8F00BF00BF28
:104EC000FEE700BF0A480068006808B9012000E05A
:104ED00000200028C1D00648D0F8008005480068AE
:104EE000034908600348C0F80080BDE8F88300006B
:104EF0007C000020800000200E480068401C08B99B
:104F0000012000E0002050B900BF502080F311883C
:104F1000BFF34F8FBFF36F8F00BF00BFFEE700BF2F
:104F2000502080F31188BFF34F8FBFF36F8F00BF06
:104F300000BFFEE7B400002008B500BF6846FFF7D9
:104F4000A9FC044620460099FFF71AFFFFF766FE0A
:104F5000F4E770B5044600F059F994F9455010E0B3
:104F6000606A08B9012000E0002038B904F124008B
:104F700001F09EF918B100F0A9FA00E003E0681E04
:104F800045B2002DECDC00BFFF2084F8450000F0A6
:104F900067F900F03BF994F9445010E0206908B932
:104FA000012000E0002048B904F1100001F080F970
:104FB00008B100F08BFA681E45B200E001E0002D58
:104FC000ECDC00BFFF2084F8440000F049F970BD1C
:104FD0002DE9F04104464FF0000800F015FB494868
:104FE000006808B9FFF76AFC4748006820400028BD
:104FF00070D1D4B1083404F00700B0B104F0070058
:10500000C0F10800044404F0070008B9012000E0E2
:10501000002050B900BF502080F31188BFF34F8F9C
:10502000BFF36F8F00BF00BFFEE7002C52D03748A0
:10503000006884424ED8364E3046056801E02E4660
:105040002D686868A04202D228680028F7D12D4850
:10505000006885423ED0306800F10808286830605A
:105060006868001B102819D92F1907F0070008B924
:10507000012000E0002050B900BF502080F31188CB
:10508000BFF34F8FBFF36F8F00BF00BFFEE76868AD
:10509000001B78606C603846FFF70AFD1B496868A2
:1050A0000968081A1949086008460068194909681A
:1050B000884203D21548006816490860124968689A
:1050C0000968084368600020286013480068401C95
:1050D0001149086001F038F908F0070008B901200B
:1050E00000E0002050B900BF502080F31188BFF3CA
:1050F0004F8FBFF36F8F00BF00BFFEE74046BDE894
:10510000F08100009C000020B0000020A0000020E2
:1051100094000020A4000020A8000020001F4FF0F1
:1051200080730360001F21F001030360001F054B23
:10513000036014380260001F6FF002030360203820
:1051400070470000F94E000801460A69D1E90130B4
:105150009860D1E9010358605068884201D188689D
:105160005060002008611068401E10601068704791
:10517000034B0360034B0B608023136070470000F8
:10518000C00900201C0A0020034B0360034B0B6086
:105190004FF48073136070471C0C0020780C0020C3
:1051A00000F1080141604FF0FF31816000F108011A
:1051B000C1600161002101607047002101617047F9
:1051C00010B502460B685C1C0CB9106907E002F1CF
:1051D000080000E04068446824689C42FAD94468AA
:1051E0004C604C68A160886041600A611468641C6E
:1051F000146010BD42684A6093688B609368596080
:105200009160086103685B1C0360704700BF502019
:1052100080F31188BFF34F8FBFF36F8F00BF0E482D
:105220000068401C0C49086008460068012812D13B
:105230000A480068C0B208B9012000E0002050B957
:1052400000BF502080F31188BFF34F8FBFF36F8FE3
:1052500000BF00BFFEE77047B400002004ED00E08F
:105260000D48006850B900BF502080F31188BFF38B
:105270004F8FBFF36F8F00BF00BFFEE70648006887
:10528000401E054908600846006820B9002080F3E8
:10529000118800BF00BF7047B400002070B50646FB
:1052A0003546002E44D0083D2C46224960680968E6
:1052B000084008B1012000E0002050B900BF502094
:1052C00080F31188BFF34F8FBFF36F8F00BF00BF14
:1052D000FEE7206808B9012000E0002050B900BFB7
:1052E000502080F31188BFF34F8FBFF36F8F00BF43
:1052F00000BFFEE70F49606809680840C0B1206838
:10530000B0B90C49606809688843606000F07CF9B6
:105310000949606809680844074908602046FFF7A2
:10532000C7FB06480068401C0449086001F00CF8FF
:1053300070BD0000B0000020A0000020AC000020E4
:1053400000204FF0E02108618861064800684FF4B2
:105350007A71B0FBF1F0401E4FF0E0214861072068
:10536000086170473C00002070B5FAF773FF0446EF
:10537000102C16D304F1E02090F8F0531548007873
:10538000854201DB012000E0002050B900BF502021
:1053900080F31188BFF34F8FBFF36F8F00BF00BF43
:1053A000FEE70D48006800F4E0600C490968884297
:1053B00001D8012000E0002050B900BF502080F348
:1053C0001188BFF34F8FBFF36F8F00BF00BFFEE7A1
:1053D00070BD0000B80000200CED00E0BC00002013
:1053E000024600200BE0084B53F8303033B9064B2F
:1053F00043F8301003EBC0035A6002E0401C082859
:10540000F1D300BF70470000A40300202DE9F04154
:1054100005460E4617462C46FFF7F8FE94F9440061
:10542000401C10B9002084F8440094F94500401C49
:1054300010B9002084F84500FFF712FFA06B28B9CF
:105440003A46314604F1240000F062F82046FFF7A6
:1054500080FDBDE8F081000070B504460025D4B1A0
:105460001248006808B9012000E0002050B900BFD0
:10547000502080F31188BFF34F8FBFF36F8F00BFB1
:1054800000BFFEE700F0C0F800212046FFF78EF8CD
:1054900000F05AFF05463DB94FF0805004490860BE
:1054A000BFF34F8FBFF36F8F70BD000078000020F7
:1054B00004ED00E00349096801600349096841609F
:1054C00070470000680000205400002001200149BE
:1054D000086070476400002070B504460D4654B95A
:1054E00000BF502080F31188BFF34F8FBFF36F8F41
:1054F00000BF00BFFEE70548016818312046FFF7EE
:105500005FFE01212846FFF751F870BD40000020E2
:1055100070B505460E46144655B900BF502080F3BD
:105520001188BFF34F8FBFF36F8F00BF00BFFEE73F
:105530000648016818312846FFF75CFE0CB14FF0B1
:10554000FF3621463046FFF731F870BD400000209D
:1055500010B586B000200590049003AA04A905A800
:10556000FFF706FE0022DDE904101346CDE9002115
:1055700002901EA11F48039A00F032FD1E490860E8
:105580000846006808B1012400E00024012C02D183
:1055900000F05CFF0446012C15D100BF502080F3C1
:1055A0001188BFF34F8FBFF36F8F00BF4FF0FF30F5
:1055B0001249086001201249086000201149086062
:1055C00000F072F810E0601C08B1012000E000203B
:1055D00050B900BF502080F31188BFF34F8FBFF345
:1055E0006F8F00BF00BFFEE706B010BD49444C45B9
:1055F00000000000394900087400002070000020FD
:105600005C0000205400002002480068401C014952
:1056100008607047780000201E48006818B101201B
:105620001D49086034E000201B4908601B480168E0
:105630000CE051B900BF502080F31188BFF34F8FA9
:10564000BFF36F8F00BF00BFFEE7491E01EB810073
:10565000134A52F8200008B9012000E00020002879
:10566000E7D101EB81020E4B03EB820042685268E6
:10567000426000F108024368934202D142685268D6
:1056800042604268D268074B1A600448016000BF5C
:1056900070470000780000206400002058000020BF
:1056A000E4030020400000201CB552480068524925
:1056B000884201D0012000E0002050B900BF5020F6
:1056C00080F31188BFF34F8FBFF36F8F00BF00BF10
:1056D000FEE7484800684849491E884201D0012039
:1056E00000E0002050B900BF502080F31188BFF3C4
:1056F0004F8FBFF36F8F00BF00BFFEE73F490846E3
:1057000000780190FF200A4610700846007800904B
:105710009DF8000000F0F0009DF80020904201D1BB
:10572000012000E0002050B900BF502080F3118814
:10573000BFF34F8FBFF36F8F00BF00BFFEE79DF831
:10574000000000F050002E4A107007202D4A106013
:1057500009E02C480068401E2A4A10609DF80000AD
:105760004006000E00909DF8000000F080008028A8
:10577000EFD024480068C0F10700042801D10120BF
:1057800000E0002050B900BF502080F31188BFF323
:105790004F8FBFF36F8F00BF00BFFEE7194800684F
:1057A0000002184A10601046008800F4E0601060A3
:1057B000124A019810700F482030006840F47000C1
:1057C0000C49203108600846006840F070400860CD
:1057D000FFF7B6FD00200C490860FAF703FD0B48FF
:1057E000006840F0404009490860FAF7E7FC0020F3
:1057F0001CBD000000ED00E071C20F4100E400E0BC
:10580000B8000020BC000020B400002034EF00E00D
:1058100010B500BF502080F31188BFF34F8FBFF346
:105820006F8F00BF00F050FC18B14FF0805004495A
:10583000086000BF002080F3118800BF10BD000089
:1058400004ED00E02DE9F84305460E4617460DB17C
:10585000012000E0002050B900BF502080F31188E3
:10586000BFF34F8FBFF36F8F00BF00BFFEE705FB95
:1058700006F808F15000FFF7ABFB044664B1A146FF
:1058800009F15009002084F846003B464A4631465B
:1058900028460094FFF764F82046BDE8F8832DE918
:1058A000F84380460E4617461D46DDF82090B8F1B5
:1058B000000F01D0012000E0002050B900BF5020AF
:1058C00080F31188BFF34F8FBFF36F8F00BF00BF0E
:1058D000FEE70DB1012000E0002050B900BF5020CC
:1058E00080F31188BFF34F8FBFF36F8F00BF00BFEE
:1058F000FEE707B10EB1012000E0002050B900BF63
:10590000502080F31188BFF34F8FBFF36F8F00BF1C
:1059100000BFFEE707B90EB9012000E0002050B932
:1059200000BF502080F31188BFF34F8FBFF36F8FFC
:1059300000BF00BFFEE7502000900098502801D122
:10594000012000E0002050B900BF502080F31188F2
:10595000BFF34F8FBFF36F8F00BF00BFFEE700BFE5
:105960002C464CB1012084F846004B463A4631465D
:1059700040460094FEF7F4FF2046BDE8F88300009F
:1059800070B505460E462C4654B900BF502080F332
:105990001188BFF34F8FBFF36F8F00BF00BFFEE7CB
:1059A000FFF734FCD4E90F12206801FB0200A0606D
:1059B0000020A06320686060E06B401E226C2168BC
:1059C00000FB0211E160FF2084F8440084F84500E8
:1059D0009EB9206908B9012000E00020A8B904F1AF
:1059E000100000F065FC80B14FF08050094908605C
:1059F000BFF34F8FBFF36F8F07E004F11000FFF785
:105A0000CFFB04F12400FFF7CBFBFFF729FC0120BB
:105A100070BD000004ED00E02DE9FF4383B00646B1
:105A200088461D464FF00009344654B900BF502047
:105A300080F31188BFF34F8FBFF36F8F00BF00BF9C
:105A4000FEE7B8F1000F01D1206C08B9012000E099
:105A5000002050B900BF502080F31188BFF34F8F52
:105A6000BFF36F8F00BF00BFFEE7022D02D1E06BD6
:105A7000012801D1012000E0002050B900BF5020D2
:105A800080F31188BFF34F8FBFF36F8F00BF00BF4C
:105A9000FEE700F003FB08B9059808B9012000E013
:105AA000002050B900BF502080F31188BFF34F8F02
:105AB000BFF36F8F00BF00BFFEE700BFFFF7A6FB7D
:105AC000A06BE16B884201D3022D28D12A464146C2
:105AD0002046FEF778FE0746606A08B9012000E01C
